{
  "contractName": "PlayerScore",
  "abi": [
    {
      "constant": true,
      "inputs": [],
      "name": "startDate",
      "outputs": [
        {
          "name": "",
          "type": "uint256"
        }
      ],
      "payable": false,
      "stateMutability": "view",
      "type": "function"
    },
    {
      "constant": true,
      "inputs": [
        {
          "name": "",
          "type": "uint256"
        }
      ],
      "name": "TopScoresSecure",
      "outputs": [
        {
          "name": "player",
          "type": "address"
        },
        {
          "name": "score",
          "type": "int256"
        }
      ],
      "payable": false,
      "stateMutability": "view",
      "type": "function"
    },
    {
      "constant": true,
      "inputs": [],
      "name": "hercContract",
      "outputs": [
        {
          "name": "",
          "type": "address"
        }
      ],
      "payable": false,
      "stateMutability": "view",
      "type": "function"
    },
    {
      "constant": true,
      "inputs": [],
      "name": "seasonInterval",
      "outputs": [
        {
          "name": "",
          "type": "uint256"
        }
      ],
      "payable": false,
      "stateMutability": "view",
      "type": "function"
    },
    {
      "constant": false,
      "inputs": [],
      "name": "renounceOwnership",
      "outputs": [],
      "payable": false,
      "stateMutability": "nonpayable",
      "type": "function"
    },
    {
      "constant": true,
      "inputs": [
        {
          "name": "",
          "type": "uint256"
        }
      ],
      "name": "TopScores",
      "outputs": [
        {
          "name": "player",
          "type": "address"
        },
        {
          "name": "score",
          "type": "int256"
        }
      ],
      "payable": false,
      "stateMutability": "view",
      "type": "function"
    },
    {
      "constant": true,
      "inputs": [
        {
          "name": "",
          "type": "address"
        }
      ],
      "name": "Scores",
      "outputs": [
        {
          "name": "",
          "type": "int256"
        }
      ],
      "payable": false,
      "stateMutability": "view",
      "type": "function"
    },
    {
      "constant": true,
      "inputs": [],
      "name": "owner",
      "outputs": [
        {
          "name": "",
          "type": "address"
        }
      ],
      "payable": false,
      "stateMutability": "view",
      "type": "function"
    },
    {
      "constant": true,
      "inputs": [],
      "name": "isOwner",
      "outputs": [
        {
          "name": "",
          "type": "bool"
        }
      ],
      "payable": false,
      "stateMutability": "view",
      "type": "function"
    },
    {
      "constant": true,
      "inputs": [],
      "name": "lastWipeDate",
      "outputs": [
        {
          "name": "",
          "type": "uint256"
        }
      ],
      "payable": false,
      "stateMutability": "view",
      "type": "function"
    },
    {
      "constant": true,
      "inputs": [],
      "name": "payoutBoss",
      "outputs": [
        {
          "name": "",
          "type": "address"
        }
      ],
      "payable": false,
      "stateMutability": "view",
      "type": "function"
    },
    {
      "constant": true,
      "inputs": [
        {
          "name": "",
          "type": "uint256"
        }
      ],
      "name": "winnerReward",
      "outputs": [
        {
          "name": "",
          "type": "uint256"
        }
      ],
      "payable": false,
      "stateMutability": "view",
      "type": "function"
    },
    {
      "constant": true,
      "inputs": [],
      "name": "releaseDate",
      "outputs": [
        {
          "name": "",
          "type": "uint256"
        }
      ],
      "payable": false,
      "stateMutability": "view",
      "type": "function"
    },
    {
      "constant": false,
      "inputs": [
        {
          "name": "newOwner",
          "type": "address"
        }
      ],
      "name": "transferOwnership",
      "outputs": [],
      "payable": false,
      "stateMutability": "nonpayable",
      "type": "function"
    },
    {
      "anonymous": false,
      "inputs": [
        {
          "indexed": false,
          "name": "player",
          "type": "address"
        },
        {
          "indexed": false,
          "name": "rank",
          "type": "uint256"
        },
        {
          "indexed": false,
          "name": "reward",
          "type": "uint256"
        }
      ],
      "name": "WinnerPayout",
      "type": "event"
    },
    {
      "anonymous": false,
      "inputs": [
        {
          "indexed": true,
          "name": "previousOwner",
          "type": "address"
        },
        {
          "indexed": true,
          "name": "newOwner",
          "type": "address"
        }
      ],
      "name": "OwnershipTransferred",
      "type": "event"
    },
    {
      "constant": false,
      "inputs": [
        {
          "name": "score",
          "type": "int256"
        }
      ],
      "name": "SetScore",
      "outputs": [],
      "payable": false,
      "stateMutability": "nonpayable",
      "type": "function"
    },
    {
      "constant": true,
      "inputs": [],
      "name": "GetTopScoresCount",
      "outputs": [
        {
          "name": "",
          "type": "uint256"
        }
      ],
      "payable": false,
      "stateMutability": "view",
      "type": "function"
    },
    {
      "constant": true,
      "inputs": [],
      "name": "GetTopScoresMax",
      "outputs": [
        {
          "name": "",
          "type": "uint256"
        }
      ],
      "payable": false,
      "stateMutability": "view",
      "type": "function"
    },
    {
      "constant": true,
      "inputs": [],
      "name": "GetTopScoresSecureCount",
      "outputs": [
        {
          "name": "",
          "type": "uint256"
        }
      ],
      "payable": false,
      "stateMutability": "view",
      "type": "function"
    },
    {
      "constant": true,
      "inputs": [
        {
          "name": "index",
          "type": "uint256"
        }
      ],
      "name": "getTopPlayerAddress",
      "outputs": [
        {
          "name": "",
          "type": "address"
        }
      ],
      "payable": false,
      "stateMutability": "view",
      "type": "function"
    },
    {
      "constant": true,
      "inputs": [
        {
          "name": "index",
          "type": "uint256"
        }
      ],
      "name": "getTopPlayerScore",
      "outputs": [
        {
          "name": "",
          "type": "int256"
        }
      ],
      "payable": false,
      "stateMutability": "view",
      "type": "function"
    },
    {
      "constant": false,
      "inputs": [
        {
          "name": "player",
          "type": "address"
        },
        {
          "name": "score",
          "type": "int256"
        }
      ],
      "name": "SetScoreSecure",
      "outputs": [],
      "payable": false,
      "stateMutability": "nonpayable",
      "type": "function"
    },
    {
      "constant": true,
      "inputs": [
        {
          "name": "_addr",
          "type": "address"
        }
      ],
      "name": "addressToString",
      "outputs": [
        {
          "name": "",
          "type": "string"
        }
      ],
      "payable": false,
      "stateMutability": "view",
      "type": "function"
    },
    {
      "constant": true,
      "inputs": [
        {
          "name": "smsg",
          "type": "string"
        },
        {
          "name": "v",
          "type": "uint8"
        },
        {
          "name": "r",
          "type": "bytes32"
        },
        {
          "name": "s",
          "type": "bytes32"
        }
      ],
      "name": "verifySign",
      "outputs": [
        {
          "name": "",
          "type": "address"
        }
      ],
      "payable": false,
      "stateMutability": "view",
      "type": "function"
    },
    {
      "constant": false,
      "inputs": [
        {
          "name": "player",
          "type": "address"
        },
        {
          "name": "score",
          "type": "int256"
        },
        {
          "name": "metrics",
          "type": "string"
        },
        {
          "name": "v",
          "type": "uint8"
        },
        {
          "name": "r",
          "type": "bytes32"
        },
        {
          "name": "s",
          "type": "bytes32"
        }
      ],
      "name": "SetScoreSecureSign",
      "outputs": [],
      "payable": false,
      "stateMutability": "nonpayable",
      "type": "function"
    },
    {
      "constant": false,
      "inputs": [
        {
          "name": "hercContract_",
          "type": "address"
        }
      ],
      "name": "SetHERCTokenAddress",
      "outputs": [],
      "payable": false,
      "stateMutability": "nonpayable",
      "type": "function"
    },
    {
      "constant": false,
      "inputs": [
        {
          "name": "boss",
          "type": "address"
        }
      ],
      "name": "SetPayoutAddress",
      "outputs": [],
      "payable": false,
      "stateMutability": "nonpayable",
      "type": "function"
    },
    {
      "constant": false,
      "inputs": [
        {
          "name": "rank",
          "type": "uint256"
        },
        {
          "name": "reward",
          "type": "uint256"
        }
      ],
      "name": "SetWinnerReward",
      "outputs": [],
      "payable": false,
      "stateMutability": "nonpayable",
      "type": "function"
    },
    {
      "constant": false,
      "inputs": [
        {
          "name": "startDate_",
          "type": "uint256"
        },
        {
          "name": "releaseDate_",
          "type": "uint256"
        }
      ],
      "name": "SetNextSeasonReleaseDate",
      "outputs": [],
      "payable": false,
      "stateMutability": "nonpayable",
      "type": "function"
    },
    {
      "constant": false,
      "inputs": [
        {
          "name": "interval",
          "type": "uint256"
        }
      ],
      "name": "SetSeasonInterval",
      "outputs": [],
      "payable": false,
      "stateMutability": "nonpayable",
      "type": "function"
    },
    {
      "constant": true,
      "inputs": [],
      "name": "IsSeasonOver",
      "outputs": [
        {
          "name": "",
          "type": "bool"
        }
      ],
      "payable": false,
      "stateMutability": "view",
      "type": "function"
    },
    {
      "constant": false,
      "inputs": [],
      "name": "PayoutToWinners",
      "outputs": [],
      "payable": false,
      "stateMutability": "nonpayable",
      "type": "function"
    },
    {
      "constant": false,
      "inputs": [],
      "name": "WipeScores",
      "outputs": [],
      "payable": false,
      "stateMutability": "nonpayable",
      "type": "function"
    }
  ],
  "bytecode": "0x608060408190526000600381905560048190556009606e819055606f558054600160a060020a0319163317808255600160a060020a0316917f8be0079c531659141344cd1fd0a4f28419497f9722a3daafe3b4186f6b6457e0908290a36119ea8061006b6000396000f3006080604052600436106101955763ffffffff7c01000000000000000000000000000000000000000000000000000000006000350416630b97bc86811461019a5780630d3a9c82146101c15780631b3e093c146101d65780631b5eb1901461021157806324ad6bcc1461022b57806325ed252c1461025c57806326ee1cdc14610277578063460dba691461028c57806349bbefde146102f457806351132bbb1461030f5780635313223e146103875780635ba71d081461039c5780635e57966d146103b4578063715018a61461044a57806371d766511461045f578063747b24b71461047757806379a9b5f21461048f5780638730925f146104b35780638da5cb5b146104d45780638e068aa4146104e95780638f32d59b1461050a5780638ff2aa541461053357806392f0b13e14610548578063a4af7f641461055d578063ad94361d14610572578063b0286e3014610587578063b59e27d51461059f578063b5f86059146105b7578063b895741c146105d8578063b9e3e2db146105ed578063f2fde38b14610602578063f6393d6514610623575b600080fd5b3480156101a657600080fd5b506101af610638565b60408051918252519081900360200190f35b3480156101cd57600080fd5b506101af61063e565b3480156101e257600080fd5b506101ee600435610643565b60408051600160a060020a03909316835260208301919091528051918290030190f35b34801561021d57600080fd5b50610229600435610679565b005b34801561023757600080fd5b50610240610871565b60408051600160a060020a039092168252519081900360200190f35b34801561026857600080fd5b50610229600435602435610880565b34801561028357600080fd5b506102296108a7565b34801561029857600080fd5b506040805160206004803580820135601f81018490048402850184019095528484526102409436949293602493928401919081908401838280828437509497505050833560ff16945050506020820135916040013590506108cb565b34801561030057600080fd5b50610229600435602435610ab0565b34801561031b57600080fd5b50604080516020600460443581810135601f8101849004840285018401909552848452610229948235600160a060020a03169460248035953695946064949201919081908401838280828437509497505050833560ff1694505050602082013591604001359050610ace565b34801561039357600080fd5b506101af610c93565b3480156103a857600080fd5b506101af600435610c99565b3480156103c057600080fd5b506103d5600160a060020a0360043516610cc7565b6040805160208082528351818301528351919283929083019185019080838360005b8381101561040f5781810151838201526020016103f7565b50505050905090810190601f16801561043c5780820380516001836020036101000a031916815260200191505b509250505060405180910390f35b34801561045657600080fd5b50610229610ecd565b34801561046b57600080fd5b50610240600435610f2a565b34801561048357600080fd5b506101ee600435610f5f565b34801561049b57600080fd5b50610229600160a060020a0360043516602435610f6d565b3480156104bf57600080fd5b506101af600160a060020a03600435166111a4565b3480156104e057600080fd5b506102406111b6565b3480156104f557600080fd5b50610229600160a060020a03600435166111c5565b34801561051657600080fd5b5061051f6111fa565b604080519115158252519081900360200190f35b34801561053f57600080fd5b506101af61120b565b34801561055457600080fd5b50610229611211565b34801561056957600080fd5b506101af6113bf565b34801561057e57600080fd5b506102406113c5565b34801561059357600080fd5b506102296004356113d4565b3480156105ab57600080fd5b506101af6004356113ec565b3480156105c357600080fd5b50610229600160a060020a0360043516611400565b3480156105e457600080fd5b5061051f611435565b3480156105f957600080fd5b506101af61143e565b34801561060e57600080fd5b50610229600160a060020a0360043516611444565b34801561062f57600080fd5b506101af611463565b606c5481565b606490565b600580548290811061065157fe5b600091825260209091206002909102018054600190910154600160a060020a03909116915082565b60006106836119a7565b60008060006106906119a7565b6106986119a7565b336000908152600260205260409020549650878712156106c5573360009081526002602052604090208890555b6001546064111561076957604080518082019091523381526020810189815260018054808201825560009190915282517fb10e2d527612073b26eecdfd717e6a320cf44b4afac2b0732d9fcbe2b7fa0cf660029092029182018054600160a060020a031916600160a060020a0390921691909117905590517fb10e2d527612073b26eecdfd717e6a320cf44b4afac2b0732d9fcbe2b7fa0cf7909101559550610867565b60018054600090811061077857fe5b906000526020600020906002020160010154945060009350600192505b6001548310156107fe5760018054849081106107ad57fe5b6000918252602091829020604080518082019091526002909202018054600160a060020a031682526001015491810182905292508513156107f357816020015194508293505b600190920191610795565b8785121561086757506040805180820190915233815260208101889052600180548291908690811061082c57fe5b60009182526020918290208351600292909202018054600160a060020a031916600160a060020a039092169190911781559101516001909101555b5050505050505050565b600654600160a060020a031681565b6108886111fa565b151561089357600080fd5b80600883606481106108a157fe5b01555050565b6108af6111fa565b15156108ba57600080fd5b42606f556005546003556000600455565b6000806060600080886040518082805190602001908083835b602083106109035780518252601f1990920191602091820191016108e4565b51815160209384036101000a6000190180199092169116179052604080519290940182900382208285018552601c8084527f19457468657265756d205369676e6564204d6573736167653a0a3332000000008484019081529551919b509299508996508a95500192839250908083835b602083106109925780518252601f199092019160209182019101610973565b51815160209384036101000a600019018019909216911617905292019384525060408051808503815293820190819052835193945092839250908401908083835b602083106109f25780518252601f1990920191602091820191016109d3565b6001836020036101000a03801982511681845116808217855250505050505090500191505060405180910390209150600182898989604051600081526020016040526040518085600019166000191681526020018460ff1660ff1681526020018360001916600019168152602001826000191660001916815260200194505050505060206040516020810390808403906000865af1158015610a98573d6000803e3d6000fd5b5050604051601f1901519a9950505050505050505050565b610ab86111fa565b1515610ac357600080fd5b606c91909155606d55565b60608060606000610ade8a610cc7565b9350610ae989611469565b92508383896040516020018084805190602001908083835b60208310610b205780518252601f199092019160209182019101610b01565b51815160209384036101000a600019018019909216911617905286519190930192860191508083835b60208310610b685780518252601f199092019160209182019101610b49565b51815160209384036101000a600019018019909216911617905285519190930192850191508083835b60208310610bb05780518252601f199092019160209182019101610b91565b6001836020036101000a03801982511681845116808217855250505050505090500160000160000193505050506040516020818303038152906040529150610bfa828888886108cb565b9050610c046111b6565b600160a060020a03828116911614610c7d57604080517f08c379a000000000000000000000000000000000000000000000000000000000815260206004820152601460248201527f636865636b207369676e6174757265206661696c000000000000000000000000604482015290519081900360640190fd5b610c878a8a61154f565b50505050505050505050565b606e5481565b600060058260035401815481101515610cae57fe5b9060005260206000209060020201600101549050919050565b604080518082018252601081527f303132333435363738396162636465660000000000000000000000000000000060208201528151602a8082526060828101909452600160a060020a03851692918491600091908160200160208202803883390190505091507f3000000000000000000000000000000000000000000000000000000000000000826000815181101515610d5d57fe5b906020010190600160f860020a031916908160001a9053507f7800000000000000000000000000000000000000000000000000000000000000826001815181101515610da557fe5b906020010190600160f860020a031916908160001a905350600090505b6014811015610ec05782600485600c840160208110610ddd57fe5b1a60f860020a02600160f860020a0319169060020a900460f860020a9004815181101515610e0757fe5b90602001015160f860020a900460f860020a028282600202600201815181101515610e2e57fe5b906020010190600160f860020a031916908160001a9053508284600c830160208110610e5657fe5b1a60f860020a02600f60f860020a021660f860020a9004815181101515610e7957fe5b90602001015160f860020a900460f860020a028282600202600301815181101515610ea057fe5b906020010190600160f860020a031916908160001a905350600101610dc2565b8194505b50505050919050565b610ed56111fa565b1515610ee057600080fd5b60008054604051600160a060020a03909116907f8be0079c531659141344cd1fd0a4f28419497f9722a3daafe3b4186f6b6457e0908390a360008054600160a060020a0319169055565b600060058260035401815481101515610f3f57fe5b6000918252602090912060029091020154600160a060020a031692915050565b600180548290811061065157fe5b6000610f776119a7565b6000806000610f846119a7565b610f8c6119a7565b610f946111fa565b1515610f9f57600080fd5b600160a060020a038916600090815260026020526040902054965087871215610fde57600160a060020a03891660009081526002602052604090208890555b606460045410156110915760408051808201909152600160a060020a038a81168252602082018a8152600580546001808201835560009290925284517f036b6384b5eca791c62761152d0c79bb0604c104a5fb6f4eb0703f3154bb3db060029092029182018054600160a060020a031916919095161790935590517f036b6384b5eca791c62761152d0c79bb0604c104a5fb6f4eb0703f3154bb3db1909201919091556004805490910190559550611199565b6005805460009081106110a057fe5b906000526020600020906002020160010154945060009350600192505b6004548310156111265760058054849081106110d557fe5b6000918252602091829020604080518082019091526002909202018054600160a060020a0316825260010154918101829052925085131561111b57816020015194508293505b6001909201916110bd565b878512156111995760408051908101604052808a600160a060020a031681526020018981525090508060058581548110151561115e57fe5b60009182526020918290208351600292909202018054600160a060020a031916600160a060020a039092169190911781559101516001909101555b505050505050505050565b60026020526000908152604090205481565b600054600160a060020a031690565b6111cd6111fa565b15156111d857600080fd5b60068054600160a060020a031916600160a060020a0392909216919091179055565b600054600160a060020a0316331490565b606f5481565b60006060600061121f6119a7565b6112276111fa565b151561123257600080fd5b61123a611435565b15156112a757604080517f08c379a000000000000000000000000000000000000000000000000000000000815260206004820152601260248201527f536561736f6e20696e2070726f67726573730000000000000000000000000000604482015290519081900360640190fd5b6112b9606d54606e54606d5401610ab0565b6112c1611463565b9350836040519080825280602002602001820160405280156112fd57816020015b6112ea6119a7565b8152602001906001900390816112e25790505b509250600091505b8382101561137657600580548390811061131b57fe5b6000918252602091829020604080518082019091526002909202018054600160a060020a0316825260010154918101919091528351909150819084908490811061136157fe5b60209081029091010152600190910190611305565b61137f8361173b565b600091505b838210156113b9576113ae838381518110151561139d57fe5b602090810290910101515183611828565b600190910190611384565b50505050565b60015490565b600754600160a060020a031681565b6113dc6111fa565b15156113e757600080fd5b606e55565b600881606481106113f957fe5b0154905081565b6114086111fa565b151561141357600080fd5b60078054600160a060020a031916600160a060020a0392909216919091179055565b606d5442101590565b606d5481565b61144c6111fa565b151561145757600080fd5b61146081611937565b50565b60045490565b606060008082818515156114b25760408051808201909152600181527f300000000000000000000000000000000000000000000000000000000000000060208201529450610ec4565b8593505b83156114cd57600190920191600a840493506114b6565b826040519080825280601f01601f1916602001820160405280156114fb578160200160208202803883390190505b5091505060001982015b8515610ec057815160001982019160f860020a6030600a8a06010291849190811061152c57fe5b906020010190600160f860020a031916908160001a905350600a86049550611505565b60006115596119a7565b60008060006115666119a7565b61156e6119a7565b600160a060020a0389166000908152600260205260409020549650878712156115ad57600160a060020a03891660009081526002602052604090208890555b606460045410156116605760408051808201909152600160a060020a038a81168252602082018a8152600580546001808201835560009290925284517f036b6384b5eca791c62761152d0c79bb0604c104a5fb6f4eb0703f3154bb3db060029092029182018054600160a060020a031916919095161790935590517f036b6384b5eca791c62761152d0c79bb0604c104a5fb6f4eb0703f3154bb3db1909201919091556004805490910190559550611199565b60035460058054909190811061167257fe5b90600052602060002090600202016001015494506003546000019350600192505b60045483101561170157600583600354018154811015156116b057fe5b6000918252602091829020604080518082019091526002909202018054600160a060020a031682526001015491810182905292508513156116f657816020015194508293505b600190920191611693565b87851215611199575060408051808201909152600160a060020a038916815260208101889052600354600580548392870190811061115e57fe5b60008060006117486119a7565b84519350600092505b83831015611821578260010191505b8382101561181657848281518110151561177657fe5b9060200190602002015160200151858481518110151561179257fe5b9060200190602002015160200151131561180b5784838151811015156117b457fe5b90602001906020020151905084828151811015156117ce57fe5b9060200190602002015185848151811015156117e657fe5b602090810290910101528451819086908490811061180057fe5b602090810290910101525b600190910190611760565b600190920191611751565b5050505050565b60006118326111fa565b151561183d57600080fd5b6008826064811061184a57fe5b0154600654604080517f095ea7b3000000000000000000000000000000000000000000000000000000008152600160a060020a03878116600483015260248201859052915193945091169163095ea7b3916044808201926020929091908290030181600087803b1580156118bd57600080fd5b505af11580156118d1573d6000803e3d6000fd5b505050506040513d60208110156118e757600080fd5b505060408051600160a060020a03851681526020810184905280820183905290517f3d5c4db1fa54df9a127fcef41d90b4c4b4713d0fcc274ca1061b6995ed0100249181900360600190a1505050565b600160a060020a038116151561194c57600080fd5b60008054604051600160a060020a03808516939216917f8be0079c531659141344cd1fd0a4f28419497f9722a3daafe3b4186f6b6457e091a360008054600160a060020a031916600160a060020a0392909216919091179055565b6040805180820190915260008082526020820152905600a165627a7a723058209b08ab24e64417d42cc80f3e67814239069035e9fe672aee4a99da84b9f23a9f0029",
  "source": "pragma solidity 0.4.24;\r\n//pragma solidity ^0.4.25;\r\n//pragma experimental ABIEncoderV2;\r\n\r\n//import \"./base/Ownable.sol\";\r\n\r\nimport \"./herc/herc20.sol\";\r\n\r\n// A contract to manage players' top scores.\r\ncontract PlayerScore is Ownable\r\n{\r\n    // Represents the maximum amount of\r\n    // stored top scores.\r\n    uint constant m_maxScores = 100;\r\n    \r\n    // Represents the player-score entry.\r\n    struct Score\r\n    {\r\n        address player;\r\n        int score;\r\n    }\r\n\r\n    // WARNING! UNSECURE OLD NOT USED - todo: review, cleanup & remove [\r\n    \r\n    /// <summary>\r\n    /// Most relevant scores stored in this contract.\r\n    /// </summary>\r\n    Score[] public TopScores;\r\n    \r\n    // Maps each player with its own score.\r\n    mapping(address=>int) public Scores;\r\n    \r\n    /// <summary>\r\n    /// Sets the score for current sender.\r\n    /// If no score exists, a new one is created.\r\n    /// </summary>\r\n    function SetScore(int score) public\r\n    {\r\n        int currentScore = Scores[msg.sender];\r\n        \r\n        // Replace the old score with the new one\r\n        // if it is higher.\r\n        if(currentScore < score)\r\n        {\r\n            Scores[msg.sender] = score;\r\n        }\r\n        \r\n        // Now we populate the top scores array.\r\n        if(TopScores.length < m_maxScores)\r\n        {\r\n            // If we didn't reach yet the maximum stored\r\n            // scores amount, we simply add the new entry.\r\n            Score memory newScore = Score(msg.sender, score);\r\n            TopScores.push(newScore);\r\n        }\r\n        else\r\n        {\r\n            // If we reached the maximum stored scores amount,\r\n            // we have to verify if the new received score is\r\n            // higher than the lowest one in the top scores array.\r\n            int lowestScore = TopScores[0].score;\r\n            uint lowestScoreIndex = 0;\r\n            \r\n            // We search for the lowest stored score.\r\n            for(uint i = 1; i < TopScores.length; i++)\r\n            {\r\n                Score memory current = TopScores[i];\r\n                if(lowestScore > current.score)\r\n                {\r\n                    lowestScore = current.score;\r\n                    lowestScoreIndex = i;\r\n                }\r\n            }\r\n            \r\n            // Now we can check our new pushed score against\r\n            // the lowest one.\r\n            if(lowestScore < score)\r\n            {\r\n                Score memory newScoreToReplace = Score(msg.sender, score);\r\n                TopScores[lowestScoreIndex] = newScoreToReplace;\r\n            }\r\n        }\r\n    }\r\n    \r\n    /// <summary>\r\n    /// Get the amount of top scores.\r\n    /// </summary>\r\n    function GetTopScoresCount() view public returns (uint)\r\n    {\r\n        return TopScores.length;\r\n    }\r\n\r\n    // WARNING! UNSECURE OLD NOT USED - todo: review, cleanup & remove ]\r\n\r\n    function GetTopScoresMax() view public returns (uint)\r\n    {\r\n        return m_maxScores;\r\n    }\r\n\r\n    // SECURE [\r\n\r\n    uint private BaseIndexSecure = 0;\r\n    uint private TopScoresSecureCount = 0;\r\n\r\n    Score[] public TopScoresSecure;\r\n\r\n    function GetTopScoresSecureCount() view public returns (uint)\r\n    {\r\n        return TopScoresSecureCount;\r\n    }\r\n\r\n    function getTopPlayerAddress(uint index) view public returns (address) {\r\n        return TopScoresSecure[BaseIndexSecure + index].player;\r\n    }\r\n\r\n    function getTopPlayerScore(uint index) view public returns (int) {\r\n        return TopScoresSecure[BaseIndexSecure + index].score;\r\n//        return TopScoresSecure[BaseIndexSecure + index];\r\n    }\r\n\r\n    function SetScoreSecure(address player, int score) \r\n        public\r\n        onlyOwner\r\n    {\r\n        int currentScore = Scores[player];\r\n        \r\n        // Replace the old score with the new one\r\n        // if it is higher.\r\n        if(currentScore < score)\r\n        {\r\n            Scores[player] = score;\r\n        }\r\n        \r\n        // Now we populate the top scores array.\r\n        if(TopScoresSecureCount < m_maxScores)\r\n        {\r\n            // If we didn't reach yet the maximum stored\r\n            // scores amount, we simply add the new entry.\r\n            Score memory newScore = Score(player, score);\r\n            TopScoresSecure.push(newScore);\r\n            TopScoresSecureCount++;\r\n        }\r\n        else\r\n        {\r\n            // If we reached the maximum stored scores amount,\r\n            // we have to verify if the new received score is\r\n            // higher than the lowest one in the top scores array.\r\n            int lowestScore = TopScoresSecure[0].score;\r\n            uint lowestScoreIndex = 0;\r\n            \r\n            // We search for the lowest stored score.\r\n            for(uint i = 1; i < TopScoresSecureCount; i++)\r\n            {\r\n                Score memory current = TopScoresSecure[i];\r\n                if(lowestScore > current.score)\r\n                {\r\n                    lowestScore = current.score;\r\n                    lowestScoreIndex = i;\r\n                }\r\n            }\r\n            \r\n            // Now we can check our new pushed score against\r\n            // the lowest one.\r\n            if(lowestScore < score)\r\n            {\r\n                Score memory newScoreToReplace = Score(player, score);\r\n                TopScoresSecure[lowestScoreIndex] = newScoreToReplace;\r\n            }\r\n        }\r\n    }\r\n/*\r\n    function uintToString(uint v) public view returns (string)\r\n    {\r\n        uint maxlength = 100;\r\n        bytes memory reversed = new bytes(maxlength);\r\n        uint i = 0;\r\n        while (v != 0) {\r\n            uint remainder = v % 10;\r\n            v = v / 10;\r\n            reversed[i++] = byte(48 + remainder);\r\n        }\r\n        bytes memory s = new bytes(i + 1);\r\n        for (uint j = 0; j <= i; j++) {\r\n            s[j] = reversed[i - j];\r\n        }\r\n        return string(s);\r\n    }\r\n*/\r\n\r\n    // 0.5 Compiler Version:\r\n/*\r\n    function uintToString(uint _i) internal pure returns (string memory _uintAsString) {\r\n        if (_i == 0) {\r\n            return \"0\";\r\n        }\r\n        uint j = _i;\r\n        uint len;\r\n        while (j != 0) {\r\n            len++;\r\n            j /= 10;\r\n        }\r\n        bytes memory bstr = new bytes(len);\r\n        uint k = len - 1;\r\n        while (_i != 0) {\r\n            bstr[k--] = byte(uint8(48 + _i % 10));\r\n            _i /= 10;\r\n        }\r\n        return string(bstr);\r\n    }\r\n*/\r\n    //Pre 0.5 Compiler Version:\r\n\r\n    function uintToString(uint i) internal view returns (string)\r\n    {\r\n        if (i == 0) return \"0\";\r\n        uint j = i;\r\n        uint length;\r\n        while (j != 0){\r\n            length++;\r\n            j /= 10;\r\n        }\r\n        bytes memory bstr = new bytes(length);\r\n        uint k = length - 1;\r\n        while (i != 0){\r\n            bstr[k--] = byte(48 + i % 10);\r\n            i /= 10;\r\n        }\r\n        return string(bstr);\r\n    }\r\n\r\n    function addressToString(address _addr) public view returns(string) {\r\n        bytes32 value = bytes32(uint256(_addr));\r\n        bytes memory alphabet = \"0123456789abcdef\";\r\n\r\n        bytes memory str = new bytes(42);\r\n        str[0] = \"0\";\r\n        str[1] = \"x\";\r\n        for (uint i = 0; i < 20; i++) {\r\n            str[2+i*2] = alphabet[uint(value[i + 12] >> 4)];\r\n            str[3+i*2] = alphabet[uint(value[i + 12] & 0x0f)];\r\n        }\r\n        return string(str);\r\n    }\r\n/*\r\n    function debugS1(address player) public view returns (string) {\r\n        string memory s1 = addressToString(player);\r\n        return s1;\r\n    }\r\n\r\n    function debugS2(uint score) public view returns (string) {\r\n        string memory s2 = uintToString(score);\r\n        return s2;\r\n    }\r\n\r\n    function debugS3(string s1, string s2, string metrics) view public returns (string) {\r\n        string memory smsg = string(abi.encodePacked(s1, s2, metrics, \"\", \"\"));\r\n        return smsg;\r\n    }\r\n\r\n    function debugS4(string s1, string s2, string metrics) view public returns (bytes32) {\r\n        string memory smsg = string(abi.encodePacked(s1, s2, metrics, \"\", \"\"));\r\n        bytes32 h = keccak256(bytes(smsg));\r\n        return h;\r\n    }\r\n    function debugS5(string s1, string s2, string metrics) view public returns (bytes32) {\r\n        string memory smsg = string(abi.encodePacked(s1, s2, metrics, \"\", \"\"));\r\n        bytes32 h = keccak256(bytes(smsg));\r\n        bytes memory prefix = \"\\x19Ethereum Signed Message:\\n32\";\r\n        bytes32 prefixedHash = keccak256(abi.encodePacked(prefix, h));\r\n        return prefixedHash;\r\n    }\r\n*/\r\n    function verifySign(string smsg, uint8 v, bytes32 r, bytes32 s) public view returns (address) {\r\n        bytes32 h = keccak256(bytes(smsg));\r\n        bytes memory prefix = \"\\x19Ethereum Signed Message:\\n32\";\r\n//        bytes32 prefixedHash = keccak256(prefix, h);\r\n//        bytes32 prefixedHash = sign(keccak256(\"\\x19Ethereum Signed Message:\\n\" + len(smsg) + smsg));\r\n        bytes32 prefixedHash = keccak256(abi.encodePacked(prefix, h));\r\n        address addr = ecrecover(prefixedHash, v, r, s);        \r\n        return addr;\r\n    }\r\n/*\r\n    function verifySignH(bytes32 h, uint8 v, bytes32 r, bytes32 s) public view returns (address) {\r\n        bytes memory prefix = \"\\x19Ethereum Signed Message:\\n32\";\r\n        bytes32 prefixedHash = keccak256(abi.encodePacked(prefix, h));\r\n        address addr = ecrecover(prefixedHash, v, r, s);\r\n        return addr;\r\n    }\r\n\r\n    function verifySignNoPrefix(string smsg, uint8 v, bytes32 r, bytes32 s) public view returns (address) {\r\n        bytes32 h = keccak256(bytes(smsg));\r\n        address addr = ecrecover(h, v, r, s);\r\n        return addr;\r\n    }\r\n\r\n    function verifySignNoPrefixH(bytes32 h, uint8 v, bytes32 r, bytes32 s) public view returns (address) {\r\n        address addr = ecrecover(h, v, r, s);\r\n        return addr;\r\n    }\r\n*/\r\n    function SetScoreSecureSign(address player, int score, string metrics, uint8 v, bytes32 r, bytes32 s) \r\n        public\r\n    {\r\n//        address player = msg.sender;\r\n\r\n        // Make string [\r\n        // format: 0xPLAYER SCORE METRICS\r\n\r\n        string memory s1 = addressToString(player);\r\n        string memory s2 = uintToString(uint(score));\r\n//        string memory smsg = string(abi.encodePacked(s1, s2, metrics, \"\", \"\"));\r\n        string memory smsg = string(abi.encodePacked(s1, s2, metrics, \"\", \"\"));\r\n\r\n        address addr = verifySign(smsg, v, r, s);\r\n/*\r\n        bytes32 h = keccak256(bytes(smsg));\r\n\r\n        // Make string [\r\n        // Verify signature [\r\n\r\n        bytes memory prefix = \"\\x19Ethereum Signed Message:\\n32\";\r\n\r\n//        bytes32 prefixedHash = sha3(prefix, h);\r\n//        bytes32 prefixedHash = sign(keccak256(\"\\x19Ethereum Signed Message:\\n\" + len(smsg) + smsg));\r\n        bytes32 prefixedHash = keccak256(abi.encodePacked(prefix, h));\r\n\r\n        address addr = ecrecover(prefixedHash, v, r, s);\r\n*/\r\n\r\n        require(addr == owner(), \"check signature fail\");\r\n\r\n        // Verify signature ]\r\n\r\n        SetScoreSecureSignInternal(player, score);\r\n    }\r\n\r\n    function SetScoreSecureSignInternal(address player, int score) \r\n        internal\r\n    {\r\n        int currentScore = Scores[player];\r\n        \r\n        // Replace the old score with the new one\r\n        // if it is higher.\r\n        if(currentScore < score)\r\n        {\r\n            Scores[player] = score;\r\n        }\r\n        \r\n        // Now we populate the top scores array.\r\n        if(TopScoresSecureCount < m_maxScores)\r\n        {\r\n            // If we didn't reach yet the maximum stored\r\n            // scores amount, we simply add the new entry.\r\n            Score memory newScore = Score(player, score);\r\n            TopScoresSecure.push(newScore);\r\n            TopScoresSecureCount++;\r\n        }\r\n        else\r\n        {\r\n            // If we reached the maximum stored scores amount,\r\n            // we have to verify if the new received score is\r\n            // higher than the lowest one in the top scores array.\r\n            int lowestScore = TopScoresSecure[BaseIndexSecure + 0].score;\r\n            uint lowestScoreIndex = BaseIndexSecure + 0;\r\n            \r\n            // We search for the lowest stored score.\r\n            for(uint i = 1; i < TopScoresSecureCount; i++)\r\n            {\r\n                Score memory current = TopScoresSecure[BaseIndexSecure + i];\r\n                if(lowestScore > current.score)\r\n                {\r\n                    lowestScore = current.score;\r\n                    lowestScoreIndex = i;\r\n                }\r\n            }\r\n            \r\n            // Now we can check our new pushed score against\r\n            // the lowest one.\r\n            if(lowestScore < score)\r\n            {\r\n                Score memory newScoreToReplace = Score(player, score);\r\n                TopScoresSecure[BaseIndexSecure + lowestScoreIndex] = newScoreToReplace;\r\n            }\r\n        }\r\n    }\r\n    // SECURE ]\r\n\r\n    // PAYOUT LOGIC [\r\n\r\n    // CONFIGURE PAYOUTS [\r\n\r\n    address public hercContract;\r\n    address public payoutBoss;\r\n    uint[m_maxScores] public winnerReward;\r\n\r\n    function SetHERCTokenAddress(address hercContract_)\r\n        public\r\n        onlyOwner\r\n    {\r\n        hercContract = hercContract_;\r\n    }\r\n\r\n    function SetPayoutAddress(address boss)\r\n        public\r\n        onlyOwner\r\n    {\r\n        payoutBoss = boss;\r\n    }\r\n\r\n    function SetWinnerReward(uint rank, uint reward)\r\n        public\r\n        onlyOwner\r\n    {\r\n        winnerReward[rank] = reward;\r\n    }\r\n\r\n    // CONFIGURE PAYOUTS ]\r\n    // SEASON DATE [\r\n\r\n    uint public startDate;\r\n    uint public releaseDate;\r\n    uint public seasonInterval=9;\r\n    uint public lastWipeDate=9;\r\n\r\n    function SetNextSeasonReleaseDate(uint startDate_, uint releaseDate_)\r\n        public\r\n        onlyOwner\r\n    {\r\n        startDate = startDate_;\r\n        releaseDate = releaseDate_;\r\n    }\r\n\r\n    function SetSeasonInterval(uint interval)\r\n        public\r\n        onlyOwner\r\n    {\r\n        seasonInterval = interval;\r\n//        lastWipeDate = interval;\r\n    }\r\n\r\n    function IsSeasonOver()\r\n        public\r\n        view\r\n        returns(bool)\r\n    {\r\n        return (now >= releaseDate);\r\n    }\r\n\r\n    // SEASON DATE ]\r\n    // SEASON PAYOUT [\r\n\r\n    function PayoutToWinners()\r\n        public\r\n        onlyOwner\r\n    {\r\n        require (IsSeasonOver(), \"Season in progress\");\r\n\r\n        // update season\r\n        SetNextSeasonReleaseDate(releaseDate, releaseDate + seasonInterval);\r\n\r\n        // move scores to memory for sort and progress\r\n        uint count = GetTopScoresSecureCount();\r\n\r\n        Score[] memory scores = new Score[](count);\r\n\r\n        uint i;\r\n        for (i = 0; i < count; i++) {\r\n            Score memory score = TopScoresSecure[i];\r\n            //scores.push(score);\r\n            scores[i] = score;\r\n        }\r\n        \r\n        sortScores(scores);\r\n\r\n        // clean up scores for prevet double spent\r\n        //WipeScores();\r\n\r\n        for (i = 0; i < count; i++) {\r\n            payoutScore(scores[i].player, i);\r\n        }\r\n    }\r\n\r\n    event WinnerPayout(address player, uint rank, uint reward);\r\n\r\n    function payoutScore(address player, uint rank)\r\n        internal\r\n        onlyOwner\r\n    {\r\n        uint reward = winnerReward[rank];\r\n\r\n        HERCToken(hercContract).approve(player, reward);\r\n//        HERCToken(hercContract).approve(payoutBoss, reward);\r\n\r\n//        HERCToken(hercContract).transferFrom(payoutBoss, player, reward);\r\n\r\n        emit WinnerPayout(player, rank, reward);\r\n    }\r\n\r\n    function WipeScores()\r\n        public\r\n        onlyOwner\r\n    {\r\n        lastWipeDate = now;\r\n//        TopScores.length = 0;\r\n//        BaseIndexSecure += TopScoresSecureCount; //TopScoresSecure.length;\r\n        BaseIndexSecure = TopScoresSecure.length;\r\n        TopScoresSecureCount = 0;\r\n    }\r\n\r\n    // SEASON PAYOUT ]\r\n    // UTILS [\r\n\r\n    function sortScores(Score[] memory scores)\r\n        internal\r\n    {\r\n        uint l = scores.length;\r\n        for(uint i = 0; i < l; i++) {\r\n            for(uint j = i+1; j < l ;j++) {\r\n                if(scores[i].score > scores[j].score) {\r\n                    Score memory temp = scores[i];\r\n                    scores[i] = scores[j];\r\n                    scores[j] = temp;\r\n                }\r\n            }\r\n        }\r\n    }\r\n\r\n    // UTILS ]\r\n    // PAYOUT LOGIC ]\r\n}\r\n",
  "sourcePath": "/home/vv/src/herc2/blockchain/contracts-dev/assetVerification/contracts/PlayerScore.sol",
  "compiler": {
    "name": "solc",
    "version": "0.4.24+commit.e67f0147.Emscripten.clang"
  },
  "schemaVersion": "2.0.1",
  "updatedAt": "2019-03-09T19:10:27.181Z"
}