{
  "contractName": "PlayerScore",
  "abi": [
    {
      "constant": true,
      "inputs": [],
      "name": "startDate",
      "outputs": [
        {
          "name": "",
          "type": "uint256"
        }
      ],
      "payable": false,
      "stateMutability": "view",
      "type": "function"
    },
    {
      "constant": true,
      "inputs": [],
      "name": "hercContract",
      "outputs": [
        {
          "name": "",
          "type": "address"
        }
      ],
      "payable": false,
      "stateMutability": "view",
      "type": "function"
    },
    {
      "constant": true,
      "inputs": [],
      "name": "seasonInterval",
      "outputs": [
        {
          "name": "",
          "type": "uint256"
        }
      ],
      "payable": false,
      "stateMutability": "view",
      "type": "function"
    },
    {
      "constant": false,
      "inputs": [],
      "name": "renounceOwnership",
      "outputs": [],
      "payable": false,
      "stateMutability": "nonpayable",
      "type": "function"
    },
    {
      "constant": true,
      "inputs": [
        {
          "name": "",
          "type": "uint256"
        }
      ],
      "name": "TopScores",
      "outputs": [
        {
          "name": "player",
          "type": "address"
        },
        {
          "name": "score",
          "type": "int256"
        }
      ],
      "payable": false,
      "stateMutability": "view",
      "type": "function"
    },
    {
      "constant": true,
      "inputs": [
        {
          "name": "",
          "type": "address"
        }
      ],
      "name": "Scores",
      "outputs": [
        {
          "name": "",
          "type": "int256"
        }
      ],
      "payable": false,
      "stateMutability": "view",
      "type": "function"
    },
    {
      "constant": true,
      "inputs": [],
      "name": "owner",
      "outputs": [
        {
          "name": "",
          "type": "address"
        }
      ],
      "payable": false,
      "stateMutability": "view",
      "type": "function"
    },
    {
      "constant": true,
      "inputs": [],
      "name": "isOwner",
      "outputs": [
        {
          "name": "",
          "type": "bool"
        }
      ],
      "payable": false,
      "stateMutability": "view",
      "type": "function"
    },
    {
      "constant": true,
      "inputs": [],
      "name": "payoutBoss",
      "outputs": [
        {
          "name": "",
          "type": "address"
        }
      ],
      "payable": false,
      "stateMutability": "view",
      "type": "function"
    },
    {
      "constant": true,
      "inputs": [
        {
          "name": "",
          "type": "uint256"
        }
      ],
      "name": "winnerReward",
      "outputs": [
        {
          "name": "",
          "type": "uint256"
        }
      ],
      "payable": false,
      "stateMutability": "view",
      "type": "function"
    },
    {
      "constant": true,
      "inputs": [],
      "name": "releaseDate",
      "outputs": [
        {
          "name": "",
          "type": "uint256"
        }
      ],
      "payable": false,
      "stateMutability": "view",
      "type": "function"
    },
    {
      "constant": false,
      "inputs": [
        {
          "name": "newOwner",
          "type": "address"
        }
      ],
      "name": "transferOwnership",
      "outputs": [],
      "payable": false,
      "stateMutability": "nonpayable",
      "type": "function"
    },
    {
      "anonymous": false,
      "inputs": [
        {
          "indexed": false,
          "name": "player",
          "type": "address"
        },
        {
          "indexed": false,
          "name": "rank",
          "type": "uint256"
        },
        {
          "indexed": false,
          "name": "reward",
          "type": "uint256"
        }
      ],
      "name": "WinnerPayout",
      "type": "event"
    },
    {
      "anonymous": false,
      "inputs": [
        {
          "indexed": true,
          "name": "previousOwner",
          "type": "address"
        },
        {
          "indexed": true,
          "name": "newOwner",
          "type": "address"
        }
      ],
      "name": "OwnershipTransferred",
      "type": "event"
    },
    {
      "constant": false,
      "inputs": [
        {
          "name": "score",
          "type": "int256"
        }
      ],
      "name": "SetScore",
      "outputs": [],
      "payable": false,
      "stateMutability": "nonpayable",
      "type": "function"
    },
    {
      "constant": true,
      "inputs": [],
      "name": "GetTopScoresCount",
      "outputs": [
        {
          "name": "",
          "type": "uint256"
        }
      ],
      "payable": false,
      "stateMutability": "view",
      "type": "function"
    },
    {
      "constant": false,
      "inputs": [],
      "name": "SetScoreSecure",
      "outputs": [],
      "payable": false,
      "stateMutability": "nonpayable",
      "type": "function"
    },
    {
      "constant": false,
      "inputs": [
        {
          "name": "hercContract_",
          "type": "address"
        }
      ],
      "name": "SetHERCTokenAddress",
      "outputs": [],
      "payable": false,
      "stateMutability": "nonpayable",
      "type": "function"
    },
    {
      "constant": false,
      "inputs": [
        {
          "name": "boss",
          "type": "address"
        }
      ],
      "name": "SetPayoutAddress",
      "outputs": [],
      "payable": false,
      "stateMutability": "nonpayable",
      "type": "function"
    },
    {
      "constant": false,
      "inputs": [
        {
          "name": "rank",
          "type": "uint256"
        },
        {
          "name": "reward",
          "type": "uint256"
        }
      ],
      "name": "SetWinnerReward",
      "outputs": [],
      "payable": false,
      "stateMutability": "nonpayable",
      "type": "function"
    },
    {
      "constant": false,
      "inputs": [
        {
          "name": "startDate_",
          "type": "uint256"
        },
        {
          "name": "releaseDate_",
          "type": "uint256"
        }
      ],
      "name": "SetNextSeasonReleaseDate",
      "outputs": [],
      "payable": false,
      "stateMutability": "nonpayable",
      "type": "function"
    },
    {
      "constant": false,
      "inputs": [
        {
          "name": "interval",
          "type": "uint256"
        }
      ],
      "name": "SetSeasonInterval",
      "outputs": [],
      "payable": false,
      "stateMutability": "nonpayable",
      "type": "function"
    },
    {
      "constant": false,
      "inputs": [],
      "name": "IsSeasonOver",
      "outputs": [
        {
          "name": "",
          "type": "bool"
        }
      ],
      "payable": false,
      "stateMutability": "nonpayable",
      "type": "function"
    },
    {
      "constant": false,
      "inputs": [],
      "name": "PayoutToWinners",
      "outputs": [],
      "payable": false,
      "stateMutability": "nonpayable",
      "type": "function"
    },
    {
      "constant": false,
      "inputs": [],
      "name": "WipeScores",
      "outputs": [],
      "payable": false,
      "stateMutability": "nonpayable",
      "type": "function"
    }
  ],
  "bytecode": "0x6080604081905260008054600160a060020a0319163317808255600160a060020a0316917f8be0079c531659141344cd1fd0a4f28419497f9722a3daafe3b4186f6b6457e0908290a3610d67806100576000396000f3006080604052600436106101325763ffffffff7c01000000000000000000000000000000000000000000000000000000006000350416630b97bc8681146101375780631b5eb1901461015e57806324ad6bcc1461017857806325ed252c146101a957806326ee1cdc146101c457806349bbefde146101d95780635313223e146101f457806354ccb18b14610209578063715018a61461021e578063747b24b7146102335780638730925f1461026e5780638da5cb5b1461028f5780638e068aa4146102a45780638f32d59b146102c557806392f0b13e146102ee578063a4af7f6414610303578063ad94361d14610318578063b0286e301461032d578063b59e27d514610345578063b5f860591461035d578063b895741c1461037e578063b9e3e2db14610393578063f2fde38b146103a8575b600080fd5b34801561014357600080fd5b5061014c6103c9565b60408051918252519081900360200190f35b34801561016a57600080fd5b506101766004356103cf565b005b34801561018457600080fd5b5061018d6105c7565b60408051600160a060020a039092168252519081900360200190f35b3480156101b557600080fd5b506101766004356024356105d6565b3480156101d057600080fd5b506101766105fd565b3480156101e557600080fd5b50610176600435602435610620565b34801561020057600080fd5b5061014c61063e565b34801561021557600080fd5b50610176610644565b34801561022a57600080fd5b50610176610659565b34801561023f57600080fd5b5061024b6004356106b6565b60408051600160a060020a03909316835260208301919091528051918290030190f35b34801561027a57600080fd5b5061014c600160a060020a03600435166106ec565b34801561029b57600080fd5b5061018d6106fe565b3480156102b057600080fd5b50610176600160a060020a036004351661070e565b3480156102d157600080fd5b506102da610743565b604080519115158252519081900360200190f35b3480156102fa57600080fd5b50610176610754565b34801561030f57600080fd5b5061014c61090a565b34801561032457600080fd5b5061018d610910565b34801561033957600080fd5b5061017660043561091f565b34801561035157600080fd5b5061014c600435610937565b34801561036957600080fd5b50610176600160a060020a036004351661094b565b34801561038a57600080fd5b506102da610980565b34801561039f57600080fd5b5061014c610989565b3480156103b457600080fd5b50610176600160a060020a036004351661098f565b60375481565b60006103d9610cc4565b60008060006103e6610cc4565b6103ee610cc4565b3360009081526002602052604090205496508787121561041b573360009081526002602052604090208890555b600154603211156104bf57604080518082019091523381526020810189815260018054808201825560009190915282517fb10e2d527612073b26eecdfd717e6a320cf44b4afac2b0732d9fcbe2b7fa0cf660029092029182018054600160a060020a031916600160a060020a0390921691909117905590517fb10e2d527612073b26eecdfd717e6a320cf44b4afac2b0732d9fcbe2b7fa0cf79091015595506105bd565b6001805460009081106104ce57fe5b906000526020600020906002020160010154945060009350600192505b60015483101561055457600180548490811061050357fe5b6000918252602091829020604080518082019091526002909202018054600160a060020a0316825260010154918101829052925085131561054957816020015194508293505b6001909201916104eb565b878512156105bd57506040805180820190915233815260208101889052600180548291908690811061058257fe5b60009182526020918290208351600292909202018054600160a060020a031916600160a060020a039092169190911781559101516001909101555b5050505050505050565b600354600160a060020a031681565b6105de610743565b15156105e957600080fd5b80600583603281106105f757fe5b01555050565b610605610743565b151561061057600080fd5b600061061d600182610cdb565b50565b610628610743565b151561063357600080fd5b603791909155603855565b60395481565b61064c610743565b151561065757600080fd5b565b610661610743565b151561066c57600080fd5b60008054604051600160a060020a03909116907f8be0079c531659141344cd1fd0a4f28419497f9722a3daafe3b4186f6b6457e0908390a360008054600160a060020a0319169055565b60018054829081106106c457fe5b600091825260209091206002909102018054600190910154600160a060020a03909116915082565b60026020526000908152604090205481565b600054600160a060020a03165b90565b610716610743565b151561072157600080fd5b60038054600160a060020a031916600160a060020a0392909216919091179055565b600054600160a060020a0316331490565b600060606000610762610cc4565b61076a610743565b151561077557600080fd5b61077d610980565b15156107ea57604080517f08c379a000000000000000000000000000000000000000000000000000000000815260206004820152601260248201527f536561736f6e20696e2070726f67726573730000000000000000000000000000604482015290519081900360640190fd5b6107fc60385460395460385401610620565b61080461090a565b93508360405190808252806020026020018201604052801561084057816020015b61082d610cc4565b8152602001906001900390816108255790505b509250600091505b838210156108b957600180548390811061085e57fe5b6000918252602091829020604080518082019091526002909202018054600160a060020a031682526001015491810191909152835190915081908490849081106108a457fe5b60209081029091010152600190910190610848565b6108c2836109ab565b6108ca6105fd565b600091505b83821015610904576108f983838151811015156108e857fe5b602090810290910101515183610a98565b6001909101906108cf565b50505050565b60015490565b600454600160a060020a031681565b610927610743565b151561093257600080fd5b603955565b6005816032811061094457fe5b0154905081565b610953610743565b151561095e57600080fd5b60048054600160a060020a031916600160a060020a0392909216919091179055565b60385442101590565b60385481565b610997610743565b15156109a257600080fd5b61061d81610c54565b60008060006109b8610cc4565b84519350600092505b83831015610a91578260010191505b83821015610a865784828151811015156109e657fe5b90602001906020020151602001518584815181101515610a0257fe5b90602001906020020151602001511315610a7b578483815181101515610a2457fe5b9060200190602002015190508482815181101515610a3e57fe5b906020019060200201518584815181101515610a5657fe5b6020908102909101015284518190869084908110610a7057fe5b602090810290910101525b6001909101906109d0565b6001909201916109c1565b5050505050565b6000610aa2610743565b1515610aad57600080fd5b60058260328110610aba57fe5b015460035460048054604080517f095ea7b3000000000000000000000000000000000000000000000000000000008152600160a060020a039283169381019390935260248301859052519394509091169163095ea7b3916044808201926020929091908290030181600087803b158015610b3357600080fd5b505af1158015610b47573d6000803e3d6000fd5b505050506040513d6020811015610b5d57600080fd5b505060035460048054604080517f23b872dd000000000000000000000000000000000000000000000000000000008152600160a060020a0392831693810193909352868216602484015260448301859052519216916323b872dd916064808201926020929091908290030181600087803b158015610bda57600080fd5b505af1158015610bee573d6000803e3d6000fd5b505050506040513d6020811015610c0457600080fd5b505060408051600160a060020a03851681526020810184905280820183905290517f3d5c4db1fa54df9a127fcef41d90b4c4b4713d0fcc274ca1061b6995ed0100249181900360600190a1505050565b600160a060020a0381161515610c6957600080fd5b60008054604051600160a060020a03808516939216917f8be0079c531659141344cd1fd0a4f28419497f9722a3daafe3b4186f6b6457e091a360008054600160a060020a031916600160a060020a0392909216919091179055565b604080518082019091526000808252602082015290565b815481835581811115610d0757600202816002028360005260206000209182019101610d079190610d0c565b505050565b61070b91905b80821115610d37578054600160a060020a031916815560006001820155600201610d12565b50905600a165627a7a723058205164feee30607c09b135a5222df522b20d600d18329ce4136ecbe2cf4790a1440029",
  "source": "pragma solidity 0.4.24;\r\n//pragma solidity ^0.4.25;\r\n\r\n//import \"./base/Ownable.sol\";\r\n\r\nimport \"./herc/herc20.sol\";\r\n\r\n// A contract to manage players' top scores.\r\ncontract PlayerScore is Ownable\r\n{\r\n    // Represents the maximum amount of\r\n    // stored top scores.\r\n    uint constant m_maxScores = 50;\r\n    \r\n    // Represents the player-score entry.\r\n    struct Score\r\n    {\r\n        address player;\r\n        int score;\r\n    }\r\n    \r\n    /// <summary>\r\n    /// Most relevant scores stored in this contract.\r\n    /// </summary>\r\n    Score[] public TopScores;\r\n    \r\n    // Maps each player with its own score.\r\n    mapping(address=>int) public Scores;\r\n    \r\n    /// <summary>\r\n    /// Sets the score for current sender.\r\n    /// If no score exists, a new one is created.\r\n    /// </summary>\r\n    function SetScore(int score) public\r\n    {\r\n        int currentScore = Scores[msg.sender];\r\n        \r\n        // Replace the old score with the new one\r\n        // if it is higher.\r\n        if(currentScore < score)\r\n        {\r\n            Scores[msg.sender] = score;\r\n        }\r\n        \r\n        // Now we populate the top scores array.\r\n        if(TopScores.length < m_maxScores)\r\n        {\r\n            // If we didn't reach yet the maximum stored\r\n            // scores amount, we simply add the new entry.\r\n            Score memory newScore = Score(msg.sender, score);\r\n            TopScores.push(newScore);\r\n        }\r\n        else\r\n        {\r\n            // If we reached the maximum stored scores amount,\r\n            // we have to verify if the new received score is\r\n            // higher than the lowest one in the top scores array.\r\n            int lowestScore = TopScores[0].score;\r\n            uint lowestScoreIndex = 0;\r\n            \r\n            // We search for the lowest stored score.\r\n            for(uint i = 1; i < TopScores.length; i++)\r\n            {\r\n                Score memory current = TopScores[i];\r\n                if(lowestScore > current.score)\r\n                {\r\n                    lowestScore = current.score;\r\n                    lowestScoreIndex = i;\r\n                }\r\n            }\r\n            \r\n            // Now we can check our new pushed score against\r\n            // the lowest one.\r\n            if(lowestScore < score)\r\n            {\r\n                Score memory newScoreToReplace = Score(msg.sender, score);\r\n                TopScores[lowestScoreIndex] = newScoreToReplace;\r\n            }\r\n        }\r\n    }\r\n    \r\n    /// <summary>\r\n    /// Get the amount of top scores.\r\n    /// </summary>\r\n    function GetTopScoresCount() view public returns (uint)\r\n    {\r\n        return TopScores.length;\r\n    }\r\n    // SECURE [\r\n\r\n    function SetScoreSecure() \r\n        public\r\n        onlyOwner\r\n    {\r\n        // todo: review requirements\r\n    }\r\n\r\n    // SECURE ]\r\n\r\n    // PAYOUT LOGIC [\r\n\r\n    // CONFIGURE PAYOUTS [\r\n\r\n    address public hercContract;\r\n    address public payoutBoss;\r\n    uint[m_maxScores] public winnerReward;\r\n\r\n    function SetHERCTokenAddress(address hercContract_)\r\n        public\r\n        onlyOwner\r\n    {\r\n        hercContract = hercContract_;\r\n    }\r\n\r\n    function SetPayoutAddress(address boss)\r\n        public\r\n        onlyOwner\r\n    {\r\n        payoutBoss = boss;\r\n    }\r\n\r\n    function SetWinnerReward(uint rank, uint reward)\r\n        public\r\n        onlyOwner\r\n    {\r\n        winnerReward[rank] = reward;\r\n    }\r\n\r\n    // CONFIGURE PAYOUTS ]\r\n    // SEASON DATE [\r\n\r\n    uint public startDate;\r\n    uint public releaseDate;\r\n    uint public seasonInterval;\r\n\r\n    function SetNextSeasonReleaseDate(uint startDate_, uint releaseDate_)\r\n        public\r\n        onlyOwner\r\n    {\r\n        startDate = startDate_;\r\n        releaseDate = releaseDate_;\r\n    }\r\n\r\n    function SetSeasonInterval(uint interval)\r\n        public\r\n        onlyOwner\r\n    {\r\n        seasonInterval = interval;\r\n    }\r\n\r\n    function IsSeasonOver()\r\n        public\r\n        returns(bool)\r\n    {\r\n        return (now >= releaseDate);\r\n    }\r\n\r\n    // SEASON DATE ]\r\n    // SEASON PAYOUT [\r\n\r\n    function PayoutToWinners()\r\n        public\r\n        onlyOwner\r\n    {\r\n        require (IsSeasonOver(), \"Season in progress\");\r\n\r\n        // update season\r\n        SetNextSeasonReleaseDate(releaseDate, releaseDate + seasonInterval);\r\n\r\n        // move scores to memory for sort and progress\r\n        uint count = GetTopScoresCount();\r\n\r\n        Score[] memory scores = new Score[](count);\r\n\r\n        uint i;\r\n        for (i = 0; i < count; i++) {\r\n            Score memory score = TopScores[i];\r\n            //scores.push(score);\r\n            scores[i] = score;\r\n        }\r\n        \r\n        sortScores(scores);\r\n\r\n        // clean up scores for prevet double spent\r\n        WipeScores();\r\n\r\n        for (i = 0; i < count; i++) {\r\n            payoutScore(scores[i].player, i);\r\n        }\r\n    }\r\n\r\n    event WinnerPayout(address player, uint rank, uint reward);\r\n\r\n    function payoutScore(address player, uint rank)\r\n        internal\r\n        onlyOwner\r\n    {\r\n        uint reward = winnerReward[rank];\r\n\r\n        HERCToken(hercContract).approve(payoutBoss, reward);\r\n\r\n        HERCToken(hercContract).transferFrom(payoutBoss, player, reward);\r\n\r\n        emit WinnerPayout(player, rank, reward);\r\n    }\r\n\r\n    function WipeScores()\r\n        public\r\n        onlyOwner\r\n    {\r\n        TopScores.length = 0;\r\n    }\r\n\r\n    // SEASON PAYOUT ]\r\n    // UTILS [\r\n\r\n    function sortScores(Score[] memory scores)\r\n        internal\r\n    {\r\n        uint l = scores.length;\r\n        for(uint i = 0; i < l; i++) {\r\n            for(uint j = i+1; j < l ;j++) {\r\n                if(scores[i].score > scores[j].score) {\r\n                    Score memory temp = scores[i];\r\n                    scores[i] = scores[j];\r\n                    scores[j] = temp;\r\n                }\r\n            }\r\n        }\r\n    }\r\n\r\n    // UTILS ]\r\n    // PAYOUT LOGIC ]\r\n}\r\n",
  "sourcePath": "/home/vv/src/herc2/blockchain/contracts-dev/assetVerification/contracts/PlayerScore.sol",
  "compiler": {
    "name": "solc",
    "version": "0.4.24+commit.e67f0147.Emscripten.clang"
  },
  "schemaVersion": "2.0.1",
  "updatedAt": "2018-12-24T22:17:20.252Z"
}