{
  "contractName": "PuzzleManager",
  "abi": [
    {
      "constant": true,
      "inputs": [],
      "name": "owner",
      "outputs": [
        {
          "name": "",
          "type": "address"
        }
      ],
      "payable": false,
      "stateMutability": "view",
      "type": "function"
    },
    {
      "constant": false,
      "inputs": [
        {
          "name": "newOwner",
          "type": "address"
        }
      ],
      "name": "transferOwnership",
      "outputs": [],
      "payable": false,
      "stateMutability": "nonpayable",
      "type": "function"
    },
    {
      "anonymous": false,
      "inputs": [
        {
          "indexed": false,
          "name": "puzzleId",
          "type": "uint256"
        },
        {
          "indexed": false,
          "name": "uniqueId",
          "type": "string"
        }
      ],
      "name": "PuzzleCreated",
      "type": "event"
    },
    {
      "anonymous": false,
      "inputs": [
        {
          "indexed": true,
          "name": "previousOwner",
          "type": "address"
        },
        {
          "indexed": true,
          "name": "newOwner",
          "type": "address"
        }
      ],
      "name": "OwnershipTransferred",
      "type": "event"
    },
    {
      "constant": false,
      "inputs": [
        {
          "name": "addr",
          "type": "address"
        },
        {
          "name": "plainTextMetrics",
          "type": "string"
        },
        {
          "name": "metricsHash",
          "type": "bytes32"
        },
        {
          "name": "checkOwner",
          "type": "bool"
        },
        {
          "name": "uniqueId",
          "type": "string"
        }
      ],
      "name": "CreateSecurePuzzle",
      "outputs": [
        {
          "name": "",
          "type": "uint256"
        }
      ],
      "payable": false,
      "stateMutability": "nonpayable",
      "type": "function"
    },
    {
      "constant": false,
      "inputs": [
        {
          "name": "puzzleId",
          "type": "uint256"
        },
        {
          "name": "metricsHash",
          "type": "bytes32"
        }
      ],
      "name": "PushSecureMetrics",
      "outputs": [
        {
          "name": "",
          "type": "bool"
        }
      ],
      "payable": false,
      "stateMutability": "nonpayable",
      "type": "function"
    },
    {
      "constant": true,
      "inputs": [
        {
          "name": "puzzleId",
          "type": "uint256"
        },
        {
          "name": "byOwner",
          "type": "bool"
        }
      ],
      "name": "CompareSecureMetrics",
      "outputs": [
        {
          "name": "",
          "type": "bool"
        }
      ],
      "payable": false,
      "stateMutability": "view",
      "type": "function"
    },
    {
      "constant": false,
      "inputs": [
        {
          "name": "metrics",
          "type": "string"
        },
        {
          "name": "uniqueId",
          "type": "string"
        }
      ],
      "name": "CreatePuzzle",
      "outputs": [
        {
          "name": "",
          "type": "uint256"
        }
      ],
      "payable": false,
      "stateMutability": "nonpayable",
      "type": "function"
    },
    {
      "constant": false,
      "inputs": [
        {
          "name": "puzzleId",
          "type": "uint256"
        },
        {
          "name": "metrics",
          "type": "string"
        }
      ],
      "name": "PushMetrics",
      "outputs": [
        {
          "name": "",
          "type": "bool"
        }
      ],
      "payable": false,
      "stateMutability": "nonpayable",
      "type": "function"
    },
    {
      "constant": true,
      "inputs": [
        {
          "name": "puzzleId",
          "type": "uint256"
        }
      ],
      "name": "CompareMetrics",
      "outputs": [
        {
          "name": "",
          "type": "bool"
        }
      ],
      "payable": false,
      "stateMutability": "view",
      "type": "function"
    },
    {
      "constant": true,
      "inputs": [
        {
          "name": "puzzleId",
          "type": "uint256"
        }
      ],
      "name": "GetPuzzleOriginalMetrics",
      "outputs": [
        {
          "name": "",
          "type": "string"
        }
      ],
      "payable": false,
      "stateMutability": "view",
      "type": "function"
    },
    {
      "constant": true,
      "inputs": [
        {
          "name": "puzzleId",
          "type": "uint256"
        }
      ],
      "name": "GetPuzzleMetrics",
      "outputs": [
        {
          "name": "",
          "type": "bytes"
        }
      ],
      "payable": false,
      "stateMutability": "view",
      "type": "function"
    },
    {
      "constant": false,
      "inputs": [
        {
          "name": "user",
          "type": "address"
        }
      ],
      "name": "ban",
      "outputs": [],
      "payable": false,
      "stateMutability": "nonpayable",
      "type": "function"
    },
    {
      "constant": false,
      "inputs": [
        {
          "name": "user",
          "type": "address"
        }
      ],
      "name": "unban",
      "outputs": [],
      "payable": false,
      "stateMutability": "nonpayable",
      "type": "function"
    }
  ],
  "bytecode": "0x6080604052600060038190558054600160a060020a0319163317905561102f8061002a6000396000f3006080604052600436106100b95763ffffffff7c010000000000000000000000000000000000000000000000000000000060003504166310669bd481146100be5780631edb7da5146100ed5780635edc73741461010a578063751dac07146101d05780637a04d9941461025d5780638da5cb5b1461027557806397c3ccd8146102a6578063b9f14557146102c9578063cbf08f09146102ea578063dbb2565d14610302578063de47634c14610399578063f2fde38b146103f7575b600080fd5b3480156100ca57600080fd5b506100d9600435602435610418565b604080519115158252519081900360200190f35b3480156100f957600080fd5b506100d960043560243515156104fd565b34801561011657600080fd5b5060408051602060046024803582810135601f81018590048502860185019096528585526101be958335600160a060020a031695369560449491939091019190819084018382808284375050604080516020888301358a018035601f8101839004830284018301909452838352979a89359a8a83013515159a919990985060609091019650919450908101925081908401838280828437509497506106109650505050505050565b60408051918252519081900360200190f35b3480156101dc57600080fd5b506101e860043561086a565b6040805160208082528351818301528351919283929083019185019080838360005b8381101561022257818101518382015260200161020a565b50505050905090810190601f16801561024f5780820380516001836020036101000a031916815260200191505b509250505060405180910390f35b34801561026957600080fd5b506100d9600435610a03565b34801561028157600080fd5b5061028a610a40565b60408051600160a060020a039092168252519081900360200190f35b3480156102b257600080fd5b506102c7600160a060020a0360043516610a4f565b005b3480156102d557600080fd5b506102c7600160a060020a0360043516610a8a565b3480156102f657600080fd5b506101e8600435610ac2565b34801561030e57600080fd5b506040805160206004803580820135601f81018490048402850184019095528484526101be94369492936024939284019190819084018382808284375050604080516020601f89358b018035918201839004830284018301909452808352979a999881019791965091820194509250829150840183828082843750949750610b639650505050505050565b3480156103a557600080fd5b5060408051602060046024803582810135601f81018590048502860185019096528585526100d9958335953695604494919390910191908190840183828082843750949750610dab9650505050505050565b34801561040357600080fd5b506102c7600160a060020a0360043516610e7e565b3360009081526004602052604081205460ff161561046e576040805160e560020a62461bcd0281526020600482015260116024820152600080516020610fe4833981519152604482015290519081900360640190fd5b60008381526002602052604090206005015460ff1615156104d9576040805160e560020a62461bcd02815260206004820152601460248201527f70757a7a6c65206973206e6f7420736563757265000000000000000000000000604482015290519081900360640190fd5b50600091825260026020908152604080842033855260040190915290912055600190565b6000828152600260205260408120600581015460ff161515610569576040805160e560020a62461bcd02815260206004820152601460248201527f70757a7a6c65206973206e6f7420736563757265000000000000000000000000604482015290519081900360640190fd5b60008481526002602052604090206005015460ff610100909104161515831515146105de576040805160e560020a62461bcd02815260206004820152601460248201527f70757a7a6c6520696e76616c6964206f776e6572000000000000000000000000604482015290519081900360640190fd5b336000908152600482016020526040902054600382015414156106045760019150610609565b600091505b5092915050565b600061061a610f12565b600160a060020a03871660009081526004602052604090205460ff1615610679576040805160e560020a62461bcd0281526020600482015260116024820152600080516020610fe4833981519152604482015290519081900360640190fd5b83156106e157600054600160a060020a031633146106e1576040805160e560020a62461bcd02815260206004820152601060248201527f636865636b206f776e6572206661696c00000000000000000000000000000000604482015290519081900360640190fd5b506040805160c08101825260038054808352600160a060020a038a811660208086019182528587018c8152606087018c90526001608088018190528b151560a08901528086019096556000948552600280835297909420865181559151948201805473ffffffffffffffffffffffffffffffffffffffff191695909316949094179091559051805193948594929361077e93918501920190610f48565b50606082810151600383015560808301516005909201805460a09094015115156101000261ff001993151560ff199095169490941792909216929092179055815160408051828152602080820183815288519383019390935287517f49be62ae931254fa2536ee8261cd7bcfbea2ff5738bcacacad1e8527d0a50fee95899492908401919085019080838360005b8381101561082457818101518382015260200161080c565b50505050905090810190601f1680156108515780820380516001836020036101000a031916815260200191505b50935050505060405180910390a1519695505050505050565b60008181526002602052604081206003810154600190910154606092908390829081908190600160a060020a03163314156108b85760008881526002602052604090206003015494506108d8565b600088815260026020908152604080832033845260040190915290205494505b604080518181526060810182529060208201610800803883390190505093506000925060209150600090505b60208110156109f75785816020811061091957fe5b1a7f010000000000000000000000000000000000000000000000000000000000000002848481518110151561094a57fe5b9060200101907effffffffffffffffffffffffffffffffffffffffffffffffffffffffffffff1916908160001a90535084816020811061098657fe5b1a7f01000000000000000000000000000000000000000000000000000000000000000284838151811015156109b757fe5b9060200101907effffffffffffffffffffffffffffffffffffffffffffffffffffffffffffff1916908160001a9053506001928301929182019101610904565b50919695505050505050565b60008181526002602090815260408083203384526004810190925282205460038201541415610a355760019150610a3a565b600091505b50919050565b600054600160a060020a031681565b600054600160a060020a03163314610a6657600080fd5b600160a060020a03166000908152600460205260409020805460ff19166001179055565b600054600160a060020a03163314610aa157600080fd5b600160a060020a03166000908152600460205260409020805460ff19169055565b6000818152600260208181526040928390208201805484516001821615610100026000190190911693909304601f81018390048302840183019094528383526060939091830182828015610b575780601f10610b2c57610100808354040283529160200191610b57565b820191906000526020600020905b815481529060010190602001808311610b3a57829003601f168201915b50505050509050919050565b6000610b6d610f12565b3360009081526004602052604090205460ff1615610bc3576040805160e560020a62461bcd0281526020600482015260116024820152600080516020610fe4833981519152604482015290519081900360640190fd5b60c060405190810160405280600354815260200133600160a060020a03168152602001858152602001856040518082805190602001908083835b60208310610c1c5780518252601f199092019160209182019101610bfd565b51815160209384036101000a6000190180199092169116179052604080519290940182900390912086526000868201819052958301869052600380546001908101909155875187526002808352968490208851815588830151918101805473ffffffffffffffffffffffffffffffffffffffff1916600160a060020a039093169290921790915592870151805197985088979396610cc296508701945001919050610f48565b50606082810151600383015560808301516005909201805460a09094015115156101000261ff001993151560ff199095169490941792909216929092179055815160408051828152602080820183815288519383019390935287517f49be62ae931254fa2536ee8261cd7bcfbea2ff5738bcacacad1e8527d0a50fee95899492908401919085019080838360005b83811015610d68578181015183820152602001610d50565b50505050905090810190601f168015610d955780820380516001836020036101000a031916815260200191505b50935050505060405180910390a1519392505050565b3360009081526004602052604081205460ff1615610e01576040805160e560020a62461bcd0281526020600482015260116024820152600080516020610fe4833981519152604482015290519081900360640190fd5b816040518082805190602001908083835b60208310610e315780518252601f199092019160209182019101610e12565b51815160209384036101000a60001901801990921691161790526040805192909401829003909120600098895260028252838920338a526004019091529190962055506001949350505050565b600054600160a060020a03163314610e9557600080fd5b600160a060020a0381161515610eaa57600080fd5b60008054604051600160a060020a03808516939216917f8be0079c531659141344cd1fd0a4f28419497f9722a3daafe3b4186f6b6457e091a36000805473ffffffffffffffffffffffffffffffffffffffff1916600160a060020a0392909216919091179055565b6040805160c08101825260008082526020820181905260609282018390529181018290526080810182905260a081019190915290565b828054600181600116156101000203166002900490600052602060002090601f016020900481019282601f10610f8957805160ff1916838001178555610fb6565b82800160010185558215610fb6579182015b82811115610fb6578251825591602001919060010190610f9b565b50610fc2929150610fc6565b5090565b610fe091905b80821115610fc25760008155600101610fcc565b905600636865617465722069732062616e6e6564000000000000000000000000000000a165627a7a723058207b9771e77df960078cfeee86ff03b34a133cd1693aab906a373f9fe5f5ebbe2f0029",
  "source": "pragma solidity 0.4.24;\r\n\r\nimport \"./base/Ownable.sol\";\r\n\r\n// Manages the puzzles generation and hashes comparing.\r\ncontract PuzzleManager is Ownable\r\n{\r\n    mapping(address => bool) validators;\r\n\r\n    // Represents a generated puzzle.\r\n    struct Puzzle\r\n    {\r\n        // The unique identifier for this puzzle.\r\n        uint Id;\r\n        // The owner who generated this puzzle.\r\n        address Owner;\r\n        // The original metrics associated to this puzzle.\r\n        string OriginalMetrics;\r\n        // The original hashed metrics associated to this puzzle.\r\n        bytes32 OriginalHash;\r\n        // The map of stored hashed metrics associated to this puzzle.\r\n        mapping(address => bytes32) Hashes;\r\n        // Secure metrics\r\n        bool secure;\r\n        // Created by owner. \r\n        // todo: remove that flag if not required by 3rd party puzzle generation. possible collisions \r\n        bool createdByOwner;\r\n    }\r\n\r\n    // Internal generated puzzles.\r\n    mapping(uint => Puzzle) m_puzzles;\r\n\r\n    // The next available id.\r\n    uint m_currentId = 0;\r\n\r\n    // banlist\r\n\r\n    mapping(address => bool) banList;\r\n\r\n    // Events\r\n    event PuzzleCreated(uint puzzleId, string uniqueId);\r\n\r\n    // X.1 SECURE PUZZLE [\r\n\r\n    /// <summary>\r\n    /// Creates a new secure puzzle with given metrics.\r\n    /// </summary>\r\n    \r\n    function CreateSecurePuzzle(address addr, string plainTextMetrics, bytes32 metricsHash, bool checkOwner, string uniqueId) public returns(uint)\r\n    {\r\n        if (banList[addr]) {\r\n            revert(\"cheater is banned\"); \r\n        }\r\n\r\n        if (checkOwner)\r\n            require(msg.sender == owner, \"check owner fail\");\r\n            \r\n        // Instantiate the new puzzle in memory.\r\n        Puzzle memory puzzle = Puzzle(m_currentId, addr, plainTextMetrics, metricsHash, true, checkOwner);\r\n\r\n        // Increment the current id for the next puzzle.\r\n        m_currentId = m_currentId + 1;\r\n\r\n        // Store the new generated puzzle.\r\n        m_puzzles[puzzle.Id] = puzzle;\r\n\r\n        emit PuzzleCreated(puzzle.Id, uniqueId);\r\n\r\n        return puzzle.Id;\r\n    }\r\n\r\n    /// <summary>\r\n    /// Pushes secure metrics for the given puzzle.\r\n    /// </summary>\r\n    function PushSecureMetrics(uint puzzleId, bytes32 metricsHash) public returns(bool)\r\n    {\r\n        if (banList[msg.sender]) {\r\n            revert(\"cheater is banned\"); \r\n        }\r\n\r\n        require(m_puzzles[puzzleId].secure, \"puzzle is not secure\");\r\n\r\n        m_puzzles[puzzleId].Hashes[msg.sender] = metricsHash;\r\n\r\n        return true;\r\n    }\r\n\r\n    /// <summary>\r\n    /// Compares the metrics associated to this address to the\r\n    /// original metrics, for the given puzzle id.\r\n    /// </summary>\r\n    function CompareSecureMetrics(uint puzzleId, bool byOwner) public view returns(bool)\r\n    {\r\n        Puzzle storage puzzle = m_puzzles[puzzleId];\r\n\r\n        require(m_puzzles[puzzleId].secure, \"puzzle is not secure\");\r\n\r\n        require(m_puzzles[puzzleId].createdByOwner == byOwner, \"puzzle invalid owner\");\r\n\r\n        if (puzzle.OriginalHash == puzzle.Hashes[msg.sender])\r\n        {\r\n            return true;\r\n        }\r\n        return false;\r\n    }\r\n\r\n    // X.1 SECURE PUZZLE ]\r\n    // X.2 UNSECURE PUZZLE [\r\n\r\n    /// <summary>\r\n    /// Creates a new puzzle with given metrics.\r\n    /// </summary>\r\n    \r\n    function CreatePuzzle(string metrics, string uniqueId) public returns(uint)\r\n    {\r\n        if (banList[msg.sender]) {\r\n            revert(\"cheater is banned\"); \r\n        }\r\n            \r\n        // Instantiate the new puzzle in memory.\r\n        Puzzle memory puzzle = Puzzle(m_currentId, msg.sender, metrics, keccak256(bytes(metrics)), false, false);\r\n\r\n        // Increment the current id for the next puzzle.\r\n        m_currentId = m_currentId + 1;\r\n\r\n        // Store the new generated puzzle.\r\n        m_puzzles[puzzle.Id] = puzzle;\r\n\r\n        emit PuzzleCreated(puzzle.Id, uniqueId);\r\n\r\n        return puzzle.Id;\r\n    }\r\n\r\n    /// <summary>\r\n    /// Pushes metrics for the given puzzle.\r\n    /// </summary>\r\n    function PushMetrics(uint puzzleId, string metrics) public returns(bool)\r\n    {\r\n        if (banList[msg.sender]) {\r\n            revert(\"cheater is banned\"); \r\n        }\r\n\r\n        m_puzzles[puzzleId].Hashes[msg.sender] = keccak256(bytes(metrics));\r\n\r\n        return true;\r\n    }\r\n\r\n    /// <summary>\r\n    /// Compares the metrics associated to this address to the\r\n    /// original metrics, for the given puzzle id.\r\n    /// </summary>\r\n    function CompareMetrics(uint puzzleId) public view returns(bool)\r\n    {\r\n        Puzzle storage puzzle = m_puzzles[puzzleId];\r\n\r\n        if (puzzle.OriginalHash == puzzle.Hashes[msg.sender])\r\n        {\r\n            return true;\r\n        }\r\n        return false;\r\n    }\r\n\r\n    /// <summary>\r\n    /// Returns the original metrics associated to a given puzzle id.\r\n    /// </summary>\r\n    function GetPuzzleOriginalMetrics(uint puzzleId) public view returns(string)\r\n    {\r\n        return m_puzzles[puzzleId].OriginalMetrics;\r\n    }\r\n\r\n    // X.2 UNSECURE PUZZLE ]\r\n\r\n    /// <summary>\r\n    /// Returns the hashed metrics associated to a given puzzle id.\r\n    /// </summary>\r\n    function GetPuzzleMetrics(uint puzzleId) public view returns(bytes)\r\n    {\r\n        bytes32 original = m_puzzles[puzzleId].OriginalHash;\r\n        bytes32 current;\r\n        if (msg.sender == m_puzzles[puzzleId].Owner)\r\n        {\r\n            current = m_puzzles[puzzleId].OriginalHash;\r\n        }\r\n        else\r\n        {\r\n            current = m_puzzles[puzzleId].Hashes[msg.sender];\r\n        }\r\n \r\n        bytes memory result = new bytes(64);\r\n\r\n        uint index1 = 0;\r\n        uint index2 = 32;\r\n        for (uint i = 0; i < 32; i++)\r\n        {\r\n            result[index1] = original[i];\r\n            result[index2] = current[i];\r\n            index1 = index1 + 1;\r\n            index2 = index2 + 1;\r\n        }\r\n\r\n        return result;\r\n    }\r\n\r\n    // BAN LOGIC [\r\n    \r\n    /// <summary>\r\n    /// Ban address\r\n    /// </summary>\r\n    function ban(address user)\r\n        public\r\n        onlyOwner\r\n    {\r\n        banList[user] = true;\r\n    }\r\n\r\n    /// <summary>\r\n    /// Ban address\r\n    /// </summary>\r\n    function unban(address user)\r\n        public\r\n        onlyOwner\r\n    {\r\n        banList[user] = false;\r\n    }\r\n\r\n    // BAN LOGIC ]\r\n}\r\n",
  "sourcePath": "/home/vv/src/herc2/blockchain/contracts-dev/assetVerification/contracts/assetValidation.sol",
  "compiler": {
    "name": "solc",
    "version": "0.4.24+commit.e67f0147.Emscripten.clang"
  },
  "schemaVersion": "2.0.1",
  "updatedAt": "2018-12-24T22:17:20.258Z"
}