{
  "contractName": "PlayerScore",
  "abi": [
    {
      "constant": true,
      "inputs": [],
      "name": "startDate",
      "outputs": [
        {
          "name": "",
          "type": "uint256"
        }
      ],
      "payable": false,
      "stateMutability": "view",
      "type": "function"
    },
    {
      "constant": true,
      "inputs": [
        {
          "name": "",
          "type": "uint256"
        }
      ],
      "name": "TopScoresSecure",
      "outputs": [
        {
          "name": "player",
          "type": "address"
        },
        {
          "name": "score",
          "type": "int256"
        }
      ],
      "payable": false,
      "stateMutability": "view",
      "type": "function"
    },
    {
      "constant": true,
      "inputs": [],
      "name": "hercContract",
      "outputs": [
        {
          "name": "",
          "type": "address"
        }
      ],
      "payable": false,
      "stateMutability": "view",
      "type": "function"
    },
    {
      "constant": true,
      "inputs": [],
      "name": "seasonInterval",
      "outputs": [
        {
          "name": "",
          "type": "uint256"
        }
      ],
      "payable": false,
      "stateMutability": "view",
      "type": "function"
    },
    {
      "constant": false,
      "inputs": [],
      "name": "renounceOwnership",
      "outputs": [],
      "payable": false,
      "stateMutability": "nonpayable",
      "type": "function"
    },
    {
      "constant": true,
      "inputs": [
        {
          "name": "",
          "type": "uint256"
        }
      ],
      "name": "TopScores",
      "outputs": [
        {
          "name": "player",
          "type": "address"
        },
        {
          "name": "score",
          "type": "int256"
        }
      ],
      "payable": false,
      "stateMutability": "view",
      "type": "function"
    },
    {
      "constant": true,
      "inputs": [
        {
          "name": "",
          "type": "address"
        }
      ],
      "name": "Scores",
      "outputs": [
        {
          "name": "",
          "type": "int256"
        }
      ],
      "payable": false,
      "stateMutability": "view",
      "type": "function"
    },
    {
      "constant": true,
      "inputs": [],
      "name": "owner",
      "outputs": [
        {
          "name": "",
          "type": "address"
        }
      ],
      "payable": false,
      "stateMutability": "view",
      "type": "function"
    },
    {
      "constant": true,
      "inputs": [],
      "name": "isOwner",
      "outputs": [
        {
          "name": "",
          "type": "bool"
        }
      ],
      "payable": false,
      "stateMutability": "view",
      "type": "function"
    },
    {
      "constant": true,
      "inputs": [],
      "name": "lastWipeDate",
      "outputs": [
        {
          "name": "",
          "type": "uint256"
        }
      ],
      "payable": false,
      "stateMutability": "view",
      "type": "function"
    },
    {
      "constant": true,
      "inputs": [],
      "name": "payoutBoss",
      "outputs": [
        {
          "name": "",
          "type": "address"
        }
      ],
      "payable": false,
      "stateMutability": "view",
      "type": "function"
    },
    {
      "constant": true,
      "inputs": [
        {
          "name": "",
          "type": "uint256"
        }
      ],
      "name": "winnerReward",
      "outputs": [
        {
          "name": "",
          "type": "uint256"
        }
      ],
      "payable": false,
      "stateMutability": "view",
      "type": "function"
    },
    {
      "constant": true,
      "inputs": [],
      "name": "releaseDate",
      "outputs": [
        {
          "name": "",
          "type": "uint256"
        }
      ],
      "payable": false,
      "stateMutability": "view",
      "type": "function"
    },
    {
      "constant": false,
      "inputs": [
        {
          "name": "newOwner",
          "type": "address"
        }
      ],
      "name": "transferOwnership",
      "outputs": [],
      "payable": false,
      "stateMutability": "nonpayable",
      "type": "function"
    },
    {
      "anonymous": false,
      "inputs": [
        {
          "indexed": false,
          "name": "player",
          "type": "address"
        },
        {
          "indexed": false,
          "name": "rank",
          "type": "uint256"
        },
        {
          "indexed": false,
          "name": "reward",
          "type": "uint256"
        }
      ],
      "name": "WinnerPayout",
      "type": "event"
    },
    {
      "anonymous": false,
      "inputs": [
        {
          "indexed": true,
          "name": "previousOwner",
          "type": "address"
        },
        {
          "indexed": true,
          "name": "newOwner",
          "type": "address"
        }
      ],
      "name": "OwnershipTransferred",
      "type": "event"
    },
    {
      "constant": false,
      "inputs": [
        {
          "name": "score",
          "type": "int256"
        }
      ],
      "name": "SetScore",
      "outputs": [],
      "payable": false,
      "stateMutability": "nonpayable",
      "type": "function"
    },
    {
      "constant": true,
      "inputs": [],
      "name": "GetTopScoresCount",
      "outputs": [
        {
          "name": "",
          "type": "uint256"
        }
      ],
      "payable": false,
      "stateMutability": "view",
      "type": "function"
    },
    {
      "constant": true,
      "inputs": [],
      "name": "GetTopScoresMax",
      "outputs": [
        {
          "name": "",
          "type": "uint256"
        }
      ],
      "payable": false,
      "stateMutability": "view",
      "type": "function"
    },
    {
      "constant": true,
      "inputs": [],
      "name": "GetTopScoresSecureCount",
      "outputs": [
        {
          "name": "",
          "type": "uint256"
        }
      ],
      "payable": false,
      "stateMutability": "view",
      "type": "function"
    },
    {
      "constant": false,
      "inputs": [
        {
          "name": "player",
          "type": "address"
        },
        {
          "name": "score",
          "type": "int256"
        }
      ],
      "name": "SetScoreSecure",
      "outputs": [],
      "payable": false,
      "stateMutability": "nonpayable",
      "type": "function"
    },
    {
      "constant": false,
      "inputs": [
        {
          "name": "hercContract_",
          "type": "address"
        }
      ],
      "name": "SetHERCTokenAddress",
      "outputs": [],
      "payable": false,
      "stateMutability": "nonpayable",
      "type": "function"
    },
    {
      "constant": false,
      "inputs": [
        {
          "name": "boss",
          "type": "address"
        }
      ],
      "name": "SetPayoutAddress",
      "outputs": [],
      "payable": false,
      "stateMutability": "nonpayable",
      "type": "function"
    },
    {
      "constant": false,
      "inputs": [
        {
          "name": "rank",
          "type": "uint256"
        },
        {
          "name": "reward",
          "type": "uint256"
        }
      ],
      "name": "SetWinnerReward",
      "outputs": [],
      "payable": false,
      "stateMutability": "nonpayable",
      "type": "function"
    },
    {
      "constant": false,
      "inputs": [
        {
          "name": "startDate_",
          "type": "uint256"
        },
        {
          "name": "releaseDate_",
          "type": "uint256"
        }
      ],
      "name": "SetNextSeasonReleaseDate",
      "outputs": [],
      "payable": false,
      "stateMutability": "nonpayable",
      "type": "function"
    },
    {
      "constant": false,
      "inputs": [
        {
          "name": "interval",
          "type": "uint256"
        }
      ],
      "name": "SetSeasonInterval",
      "outputs": [],
      "payable": false,
      "stateMutability": "nonpayable",
      "type": "function"
    },
    {
      "constant": true,
      "inputs": [],
      "name": "IsSeasonOver",
      "outputs": [
        {
          "name": "",
          "type": "bool"
        }
      ],
      "payable": false,
      "stateMutability": "view",
      "type": "function"
    },
    {
      "constant": false,
      "inputs": [],
      "name": "PayoutToWinners",
      "outputs": [],
      "payable": false,
      "stateMutability": "nonpayable",
      "type": "function"
    },
    {
      "constant": false,
      "inputs": [],
      "name": "WipeScores",
      "outputs": [],
      "payable": false,
      "stateMutability": "nonpayable",
      "type": "function"
    }
  ],
  "bytecode": "0x60806040819052600060038190556009606d819055606e558054600160a060020a0319163317808255600160a060020a0316917f8be0079c531659141344cd1fd0a4f28419497f9722a3daafe3b4186f6b6457e0908290a3610f22806100666000396000f30060806040526004361061015e5763ffffffff7c01000000000000000000000000000000000000000000000000000000006000350416630b97bc8681146101635780630d3a9c821461018a5780631b3e093c1461019f5780631b5eb190146101da57806324ad6bcc146101f457806325ed252c1461022557806326ee1cdc1461024057806349bbefde146102555780635313223e14610270578063715018a614610285578063747b24b71461029a57806379a9b5f2146102b25780638730925f146102d65780638da5cb5b146102f75780638e068aa41461030c5780638f32d59b1461032d5780638ff2aa541461035657806392f0b13e1461036b578063a4af7f6414610380578063ad94361d14610395578063b0286e30146103aa578063b59e27d5146103c2578063b5f86059146103da578063b895741c146103fb578063b9e3e2db14610410578063f2fde38b14610425578063f6393d6514610446575b600080fd5b34801561016f57600080fd5b5061017861045b565b60408051918252519081900360200190f35b34801561019657600080fd5b50610178610461565b3480156101ab57600080fd5b506101b7600435610466565b60408051600160a060020a03909316835260208301919091528051918290030190f35b3480156101e657600080fd5b506101f260043561049c565b005b34801561020057600080fd5b50610209610694565b60408051600160a060020a039092168252519081900360200190f35b34801561023157600080fd5b506101f26004356024356106a3565b34801561024c57600080fd5b506101f26106ca565b34801561026157600080fd5b506101f26004356024356106e8565b34801561027c57600080fd5b50610178610706565b34801561029157600080fd5b506101f261070c565b3480156102a657600080fd5b506101b7600435610769565b3480156102be57600080fd5b506101f2600160a060020a0360043516602435610777565b3480156102e257600080fd5b50610178600160a060020a03600435166109ae565b34801561030357600080fd5b506102096109c0565b34801561031857600080fd5b506101f2600160a060020a03600435166109cf565b34801561033957600080fd5b50610342610a04565b604080519115158252519081900360200190f35b34801561036257600080fd5b50610178610a15565b34801561037757600080fd5b506101f2610a1b565b34801561038c57600080fd5b50610178610bc9565b3480156103a157600080fd5b50610209610bcf565b3480156103b657600080fd5b506101f2600435610bde565b3480156103ce57600080fd5b50610178600435610bf6565b3480156103e657600080fd5b506101f2600160a060020a0360043516610c0a565b34801561040757600080fd5b50610342610c3f565b34801561041c57600080fd5b50610178610c48565b34801561043157600080fd5b506101f2600160a060020a0360043516610c4e565b34801561045257600080fd5b50610178610c6d565b606b5481565b606490565b600480548290811061047457fe5b600091825260209091206002909102018054600190910154600160a060020a03909116915082565b60006104a6610edf565b60008060006104b3610edf565b6104bb610edf565b336000908152600260205260409020549650878712156104e8573360009081526002602052604090208890555b6001546064111561058c57604080518082019091523381526020810189815260018054808201825560009190915282517fb10e2d527612073b26eecdfd717e6a320cf44b4afac2b0732d9fcbe2b7fa0cf660029092029182018054600160a060020a031916600160a060020a0390921691909117905590517fb10e2d527612073b26eecdfd717e6a320cf44b4afac2b0732d9fcbe2b7fa0cf790910155955061068a565b60018054600090811061059b57fe5b906000526020600020906002020160010154945060009350600192505b6001548310156106215760018054849081106105d057fe5b6000918252602091829020604080518082019091526002909202018054600160a060020a0316825260010154918101829052925085131561061657816020015194508293505b6001909201916105b8565b8785121561068a57506040805180820190915233815260208101889052600180548291908690811061064f57fe5b60009182526020918290208351600292909202018054600160a060020a031916600160a060020a039092169190911781559101516001909101555b5050505050505050565b600554600160a060020a031681565b6106ab610a04565b15156106b657600080fd5b80600783606481106106c457fe5b01555050565b6106d2610a04565b15156106dd57600080fd5b42606e556000600355565b6106f0610a04565b15156106fb57600080fd5b606b91909155606c55565b606d5481565b610714610a04565b151561071f57600080fd5b60008054604051600160a060020a03909116907f8be0079c531659141344cd1fd0a4f28419497f9722a3daafe3b4186f6b6457e0908390a360008054600160a060020a0319169055565b600180548290811061047457fe5b6000610781610edf565b600080600061078e610edf565b610796610edf565b61079e610a04565b15156107a957600080fd5b600160a060020a0389166000908152600260205260409020549650878712156107e857600160a060020a03891660009081526002602052604090208890555b6064600354101561089b5760408051808201909152600160a060020a038a81168252602082018a8152600480546001808201835560009290925284517f8a35acfbc15ff81a39ae7d344fd709f28e8600b4aa8c65c6b64bfe7fe36bd19b60029092029182018054600160a060020a031916919095161790935590517f8a35acfbc15ff81a39ae7d344fd709f28e8600b4aa8c65c6b64bfe7fe36bd19c9092019190915560038054909101905595506109a3565b6004805460009081106108aa57fe5b906000526020600020906002020160010154945060009350600192505b6003548310156109305760048054849081106108df57fe5b6000918252602091829020604080518082019091526002909202018054600160a060020a0316825260010154918101829052925085131561092557816020015194508293505b6001909201916108c7565b878512156109a35760408051908101604052808a600160a060020a031681526020018981525090508060048581548110151561096857fe5b60009182526020918290208351600292909202018054600160a060020a031916600160a060020a039092169190911781559101516001909101555b505050505050505050565b60026020526000908152604090205481565b600054600160a060020a031690565b6109d7610a04565b15156109e257600080fd5b60058054600160a060020a031916600160a060020a0392909216919091179055565b600054600160a060020a0316331490565b606e5481565b600060606000610a29610edf565b610a31610a04565b1515610a3c57600080fd5b610a44610c3f565b1515610ab157604080517f08c379a000000000000000000000000000000000000000000000000000000000815260206004820152601260248201527f536561736f6e20696e2070726f67726573730000000000000000000000000000604482015290519081900360640190fd5b610ac3606c54606d54606c54016106e8565b610acb610c6d565b935083604051908082528060200260200182016040528015610b0757816020015b610af4610edf565b815260200190600190039081610aec5790505b509250600091505b83821015610b80576004805483908110610b2557fe5b6000918252602091829020604080518082019091526002909202018054600160a060020a03168252600101549181019190915283519091508190849084908110610b6b57fe5b60209081029091010152600190910190610b0f565b610b8983610c73565b600091505b83821015610bc357610bb88383815181101515610ba757fe5b602090810290910101515183610d60565b600190910190610b8e565b50505050565b60015490565b600654600160a060020a031681565b610be6610a04565b1515610bf157600080fd5b606d55565b60078160648110610c0357fe5b0154905081565b610c12610a04565b1515610c1d57600080fd5b60068054600160a060020a031916600160a060020a0392909216919091179055565b606c5442101590565b606c5481565b610c56610a04565b1515610c6157600080fd5b610c6a81610e6f565b50565b60035490565b6000806000610c80610edf565b84519350600092505b83831015610d59578260010191505b83821015610d4e578482815181101515610cae57fe5b90602001906020020151602001518584815181101515610cca57fe5b90602001906020020151602001511315610d43578483815181101515610cec57fe5b9060200190602002015190508482815181101515610d0657fe5b906020019060200201518584815181101515610d1e57fe5b6020908102909101015284518190869084908110610d3857fe5b602090810290910101525b600190910190610c98565b600190920191610c89565b5050505050565b6000610d6a610a04565b1515610d7557600080fd5b60078260648110610d8257fe5b0154600554604080517f095ea7b3000000000000000000000000000000000000000000000000000000008152600160a060020a03878116600483015260248201859052915193945091169163095ea7b3916044808201926020929091908290030181600087803b158015610df557600080fd5b505af1158015610e09573d6000803e3d6000fd5b505050506040513d6020811015610e1f57600080fd5b505060408051600160a060020a03851681526020810184905280820183905290517f3d5c4db1fa54df9a127fcef41d90b4c4b4713d0fcc274ca1061b6995ed0100249181900360600190a1505050565b600160a060020a0381161515610e8457600080fd5b60008054604051600160a060020a03808516939216917f8be0079c531659141344cd1fd0a4f28419497f9722a3daafe3b4186f6b6457e091a360008054600160a060020a031916600160a060020a0392909216919091179055565b6040805180820190915260008082526020820152905600a165627a7a72305820a94a141d99395ab901c95448ab39eb8800b5459f23536b8a0183a5bae9ecdaa30029",
  "source": "pragma solidity 0.4.24;\r\n//pragma solidity ^0.4.25;\r\n\r\n//import \"./base/Ownable.sol\";\r\n\r\nimport \"./herc/herc20.sol\";\r\n\r\n// A contract to manage players' top scores.\r\ncontract PlayerScore is Ownable\r\n{\r\n    // Represents the maximum amount of\r\n    // stored top scores.\r\n    uint constant m_maxScores = 100;\r\n    \r\n    // Represents the player-score entry.\r\n    struct Score\r\n    {\r\n        address player;\r\n        int score;\r\n    }\r\n\r\n    // WARNING! UNSECURE OLD NOT USED - todo: review, cleanup & remove [\r\n    \r\n    /// <summary>\r\n    /// Most relevant scores stored in this contract.\r\n    /// </summary>\r\n    Score[] public TopScores;\r\n    \r\n    // Maps each player with its own score.\r\n    mapping(address=>int) public Scores;\r\n    \r\n    /// <summary>\r\n    /// Sets the score for current sender.\r\n    /// If no score exists, a new one is created.\r\n    /// </summary>\r\n    function SetScore(int score) public\r\n    {\r\n        int currentScore = Scores[msg.sender];\r\n        \r\n        // Replace the old score with the new one\r\n        // if it is higher.\r\n        if(currentScore < score)\r\n        {\r\n            Scores[msg.sender] = score;\r\n        }\r\n        \r\n        // Now we populate the top scores array.\r\n        if(TopScores.length < m_maxScores)\r\n        {\r\n            // If we didn't reach yet the maximum stored\r\n            // scores amount, we simply add the new entry.\r\n            Score memory newScore = Score(msg.sender, score);\r\n            TopScores.push(newScore);\r\n        }\r\n        else\r\n        {\r\n            // If we reached the maximum stored scores amount,\r\n            // we have to verify if the new received score is\r\n            // higher than the lowest one in the top scores array.\r\n            int lowestScore = TopScores[0].score;\r\n            uint lowestScoreIndex = 0;\r\n            \r\n            // We search for the lowest stored score.\r\n            for(uint i = 1; i < TopScores.length; i++)\r\n            {\r\n                Score memory current = TopScores[i];\r\n                if(lowestScore > current.score)\r\n                {\r\n                    lowestScore = current.score;\r\n                    lowestScoreIndex = i;\r\n                }\r\n            }\r\n            \r\n            // Now we can check our new pushed score against\r\n            // the lowest one.\r\n            if(lowestScore < score)\r\n            {\r\n                Score memory newScoreToReplace = Score(msg.sender, score);\r\n                TopScores[lowestScoreIndex] = newScoreToReplace;\r\n            }\r\n        }\r\n    }\r\n    \r\n    /// <summary>\r\n    /// Get the amount of top scores.\r\n    /// </summary>\r\n    function GetTopScoresCount() view public returns (uint)\r\n    {\r\n        return TopScores.length;\r\n    }\r\n\r\n    // WARNING! UNSECURE OLD NOT USED - todo: review, cleanup & remove ]\r\n\r\n    function GetTopScoresMax() view public returns (uint)\r\n    {\r\n        return m_maxScores;\r\n    }\r\n\r\n    // SECURE [\r\n\r\n    uint TopScoresSecureCount = 0;\r\n\r\n    Score[] public TopScoresSecure;\r\n\r\n    function GetTopScoresSecureCount() view public returns (uint)\r\n    {\r\n        return TopScoresSecureCount;\r\n    }\r\n\r\n    function SetScoreSecure(address player, int score) \r\n        public\r\n        onlyOwner\r\n    {\r\n        int currentScore = Scores[player];\r\n        \r\n        // Replace the old score with the new one\r\n        // if it is higher.\r\n        if(currentScore < score)\r\n        {\r\n            Scores[player] = score;\r\n        }\r\n        \r\n        // Now we populate the top scores array.\r\n        if(TopScoresSecureCount < m_maxScores)\r\n        {\r\n            // If we didn't reach yet the maximum stored\r\n            // scores amount, we simply add the new entry.\r\n            Score memory newScore = Score(player, score);\r\n            TopScoresSecure.push(newScore);\r\n            TopScoresSecureCount++;\r\n        }\r\n        else\r\n        {\r\n            // If we reached the maximum stored scores amount,\r\n            // we have to verify if the new received score is\r\n            // higher than the lowest one in the top scores array.\r\n            int lowestScore = TopScoresSecure[0].score;\r\n            uint lowestScoreIndex = 0;\r\n            \r\n            // We search for the lowest stored score.\r\n            for(uint i = 1; i < TopScoresSecureCount; i++)\r\n            {\r\n                Score memory current = TopScoresSecure[i];\r\n                if(lowestScore > current.score)\r\n                {\r\n                    lowestScore = current.score;\r\n                    lowestScoreIndex = i;\r\n                }\r\n            }\r\n            \r\n            // Now we can check our new pushed score against\r\n            // the lowest one.\r\n            if(lowestScore < score)\r\n            {\r\n                Score memory newScoreToReplace = Score(player, score);\r\n                TopScoresSecure[lowestScoreIndex] = newScoreToReplace;\r\n            }\r\n        }\r\n    }\r\n\r\n    // SECURE ]\r\n\r\n    // PAYOUT LOGIC [\r\n\r\n    // CONFIGURE PAYOUTS [\r\n\r\n    address public hercContract;\r\n    address public payoutBoss;\r\n    uint[m_maxScores] public winnerReward;\r\n\r\n    function SetHERCTokenAddress(address hercContract_)\r\n        public\r\n        onlyOwner\r\n    {\r\n        hercContract = hercContract_;\r\n    }\r\n\r\n    function SetPayoutAddress(address boss)\r\n        public\r\n        onlyOwner\r\n    {\r\n        payoutBoss = boss;\r\n    }\r\n\r\n    function SetWinnerReward(uint rank, uint reward)\r\n        public\r\n        onlyOwner\r\n    {\r\n        winnerReward[rank] = reward;\r\n    }\r\n\r\n    // CONFIGURE PAYOUTS ]\r\n    // SEASON DATE [\r\n\r\n    uint public startDate;\r\n    uint public releaseDate;\r\n    uint public seasonInterval=9;\r\n    uint public lastWipeDate=9;\r\n\r\n    function SetNextSeasonReleaseDate(uint startDate_, uint releaseDate_)\r\n        public\r\n        onlyOwner\r\n    {\r\n        startDate = startDate_;\r\n        releaseDate = releaseDate_;\r\n    }\r\n\r\n    function SetSeasonInterval(uint interval)\r\n        public\r\n        onlyOwner\r\n    {\r\n        seasonInterval = interval;\r\n//        lastWipeDate = interval;\r\n    }\r\n\r\n    function IsSeasonOver()\r\n        public\r\n        view\r\n        returns(bool)\r\n    {\r\n        return (now >= releaseDate);\r\n    }\r\n\r\n    // SEASON DATE ]\r\n    // SEASON PAYOUT [\r\n\r\n    function PayoutToWinners()\r\n        public\r\n        onlyOwner\r\n    {\r\n        require (IsSeasonOver(), \"Season in progress\");\r\n\r\n        // update season\r\n        SetNextSeasonReleaseDate(releaseDate, releaseDate + seasonInterval);\r\n\r\n        // move scores to memory for sort and progress\r\n        uint count = GetTopScoresSecureCount();\r\n\r\n        Score[] memory scores = new Score[](count);\r\n\r\n        uint i;\r\n        for (i = 0; i < count; i++) {\r\n            Score memory score = TopScoresSecure[i];\r\n            //scores.push(score);\r\n            scores[i] = score;\r\n        }\r\n        \r\n        sortScores(scores);\r\n\r\n        // clean up scores for prevet double spent\r\n        //WipeScores();\r\n\r\n        for (i = 0; i < count; i++) {\r\n            payoutScore(scores[i].player, i);\r\n        }\r\n    }\r\n\r\n    event WinnerPayout(address player, uint rank, uint reward);\r\n\r\n    function payoutScore(address player, uint rank)\r\n        internal\r\n        onlyOwner\r\n    {\r\n        uint reward = winnerReward[rank];\r\n\r\n        HERCToken(hercContract).approve(player, reward);\r\n//        HERCToken(hercContract).approve(payoutBoss, reward);\r\n\r\n//        HERCToken(hercContract).transferFrom(payoutBoss, player, reward);\r\n\r\n        emit WinnerPayout(player, rank, reward);\r\n    }\r\n\r\n    function WipeScores()\r\n        public\r\n        onlyOwner\r\n    {\r\n        lastWipeDate = now;\r\n//        TopScores.length = 0;\r\n        TopScoresSecureCount = 0;\r\n    }\r\n\r\n    // SEASON PAYOUT ]\r\n    // UTILS [\r\n\r\n    function sortScores(Score[] memory scores)\r\n        internal\r\n    {\r\n        uint l = scores.length;\r\n        for(uint i = 0; i < l; i++) {\r\n            for(uint j = i+1; j < l ;j++) {\r\n                if(scores[i].score > scores[j].score) {\r\n                    Score memory temp = scores[i];\r\n                    scores[i] = scores[j];\r\n                    scores[j] = temp;\r\n                }\r\n            }\r\n        }\r\n    }\r\n\r\n    // UTILS ]\r\n    // PAYOUT LOGIC ]\r\n}\r\n",
  "sourcePath": "/home/vv/src/herc2/blockchain/contracts-dev/assetVerification/contracts/PlayerScore.sol",
  "compiler": {
    "name": "solc",
    "version": "0.4.24+commit.e67f0147.Emscripten.clang"
  },
  "schemaVersion": "2.0.1",
  "updatedAt": "2019-02-12T18:24:51.174Z"
}