{
  "contractName": "PlayerScore",
  "abi": [
    {
      "constant": true,
      "inputs": [],
      "name": "startDate",
      "outputs": [
        {
          "name": "",
          "type": "uint256"
        }
      ],
      "payable": false,
      "stateMutability": "view",
      "type": "function"
    },
    {
      "constant": true,
      "inputs": [],
      "name": "hercContract",
      "outputs": [
        {
          "name": "",
          "type": "address"
        }
      ],
      "payable": false,
      "stateMutability": "view",
      "type": "function"
    },
    {
      "constant": true,
      "inputs": [],
      "name": "seasonInterval",
      "outputs": [
        {
          "name": "",
          "type": "uint256"
        }
      ],
      "payable": false,
      "stateMutability": "view",
      "type": "function"
    },
    {
      "constant": false,
      "inputs": [],
      "name": "renounceOwnership",
      "outputs": [],
      "payable": false,
      "stateMutability": "nonpayable",
      "type": "function"
    },
    {
      "constant": true,
      "inputs": [
        {
          "name": "",
          "type": "uint256"
        }
      ],
      "name": "TopScores",
      "outputs": [
        {
          "name": "player",
          "type": "address"
        },
        {
          "name": "score",
          "type": "int256"
        }
      ],
      "payable": false,
      "stateMutability": "view",
      "type": "function"
    },
    {
      "constant": true,
      "inputs": [
        {
          "name": "",
          "type": "address"
        }
      ],
      "name": "Scores",
      "outputs": [
        {
          "name": "",
          "type": "int256"
        }
      ],
      "payable": false,
      "stateMutability": "view",
      "type": "function"
    },
    {
      "constant": true,
      "inputs": [],
      "name": "owner",
      "outputs": [
        {
          "name": "",
          "type": "address"
        }
      ],
      "payable": false,
      "stateMutability": "view",
      "type": "function"
    },
    {
      "constant": true,
      "inputs": [],
      "name": "isOwner",
      "outputs": [
        {
          "name": "",
          "type": "bool"
        }
      ],
      "payable": false,
      "stateMutability": "view",
      "type": "function"
    },
    {
      "constant": true,
      "inputs": [],
      "name": "lastWipeDate",
      "outputs": [
        {
          "name": "",
          "type": "uint256"
        }
      ],
      "payable": false,
      "stateMutability": "view",
      "type": "function"
    },
    {
      "constant": true,
      "inputs": [],
      "name": "payoutBoss",
      "outputs": [
        {
          "name": "",
          "type": "address"
        }
      ],
      "payable": false,
      "stateMutability": "view",
      "type": "function"
    },
    {
      "constant": true,
      "inputs": [
        {
          "name": "",
          "type": "uint256"
        }
      ],
      "name": "winnerReward",
      "outputs": [
        {
          "name": "",
          "type": "uint256"
        }
      ],
      "payable": false,
      "stateMutability": "view",
      "type": "function"
    },
    {
      "constant": true,
      "inputs": [],
      "name": "releaseDate",
      "outputs": [
        {
          "name": "",
          "type": "uint256"
        }
      ],
      "payable": false,
      "stateMutability": "view",
      "type": "function"
    },
    {
      "constant": false,
      "inputs": [
        {
          "name": "newOwner",
          "type": "address"
        }
      ],
      "name": "transferOwnership",
      "outputs": [],
      "payable": false,
      "stateMutability": "nonpayable",
      "type": "function"
    },
    {
      "anonymous": false,
      "inputs": [
        {
          "indexed": false,
          "name": "player",
          "type": "address"
        },
        {
          "indexed": false,
          "name": "rank",
          "type": "uint256"
        },
        {
          "indexed": false,
          "name": "reward",
          "type": "uint256"
        }
      ],
      "name": "WinnerPayout",
      "type": "event"
    },
    {
      "anonymous": false,
      "inputs": [
        {
          "indexed": true,
          "name": "previousOwner",
          "type": "address"
        },
        {
          "indexed": true,
          "name": "newOwner",
          "type": "address"
        }
      ],
      "name": "OwnershipTransferred",
      "type": "event"
    },
    {
      "constant": false,
      "inputs": [
        {
          "name": "score",
          "type": "int256"
        }
      ],
      "name": "SetScore",
      "outputs": [],
      "payable": false,
      "stateMutability": "nonpayable",
      "type": "function"
    },
    {
      "constant": true,
      "inputs": [],
      "name": "GetTopScoresCount",
      "outputs": [
        {
          "name": "",
          "type": "uint256"
        }
      ],
      "payable": false,
      "stateMutability": "view",
      "type": "function"
    },
    {
      "constant": true,
      "inputs": [],
      "name": "GetTopScoresMax",
      "outputs": [
        {
          "name": "",
          "type": "uint256"
        }
      ],
      "payable": false,
      "stateMutability": "view",
      "type": "function"
    },
    {
      "constant": false,
      "inputs": [],
      "name": "SetScoreSecure",
      "outputs": [],
      "payable": false,
      "stateMutability": "nonpayable",
      "type": "function"
    },
    {
      "constant": false,
      "inputs": [
        {
          "name": "hercContract_",
          "type": "address"
        }
      ],
      "name": "SetHERCTokenAddress",
      "outputs": [],
      "payable": false,
      "stateMutability": "nonpayable",
      "type": "function"
    },
    {
      "constant": false,
      "inputs": [
        {
          "name": "boss",
          "type": "address"
        }
      ],
      "name": "SetPayoutAddress",
      "outputs": [],
      "payable": false,
      "stateMutability": "nonpayable",
      "type": "function"
    },
    {
      "constant": false,
      "inputs": [
        {
          "name": "rank",
          "type": "uint256"
        },
        {
          "name": "reward",
          "type": "uint256"
        }
      ],
      "name": "SetWinnerReward",
      "outputs": [],
      "payable": false,
      "stateMutability": "nonpayable",
      "type": "function"
    },
    {
      "constant": false,
      "inputs": [
        {
          "name": "startDate_",
          "type": "uint256"
        },
        {
          "name": "releaseDate_",
          "type": "uint256"
        }
      ],
      "name": "SetNextSeasonReleaseDate",
      "outputs": [],
      "payable": false,
      "stateMutability": "nonpayable",
      "type": "function"
    },
    {
      "constant": false,
      "inputs": [
        {
          "name": "interval",
          "type": "uint256"
        }
      ],
      "name": "SetSeasonInterval",
      "outputs": [],
      "payable": false,
      "stateMutability": "nonpayable",
      "type": "function"
    },
    {
      "constant": true,
      "inputs": [],
      "name": "IsSeasonOver",
      "outputs": [
        {
          "name": "",
          "type": "bool"
        }
      ],
      "payable": false,
      "stateMutability": "view",
      "type": "function"
    },
    {
      "constant": false,
      "inputs": [],
      "name": "PayoutToWinners",
      "outputs": [],
      "payable": false,
      "stateMutability": "nonpayable",
      "type": "function"
    },
    {
      "constant": false,
      "inputs": [],
      "name": "WipeScores",
      "outputs": [],
      "payable": false,
      "stateMutability": "nonpayable",
      "type": "function"
    }
  ],
  "bytecode": "0x6080604081905260096039819055603a5560008054600160a060020a0319163317808255600160a060020a0316917f8be0079c531659141344cd1fd0a4f28419497f9722a3daafe3b4186f6b6457e0908290a3610dae806100616000396000f3006080604052600436106101485763ffffffff7c01000000000000000000000000000000000000000000000000000000006000350416630b97bc86811461014d5780630d3a9c82146101745780631b5eb1901461018957806324ad6bcc146101a357806325ed252c146101d457806326ee1cdc146101ef57806349bbefde146102045780635313223e1461021f57806354ccb18b14610234578063715018a614610249578063747b24b71461025e5780638730925f146102995780638da5cb5b146102ba5780638e068aa4146102cf5780638f32d59b146102f05780638ff2aa541461031957806392f0b13e1461032e578063a4af7f6414610343578063ad94361d14610358578063b0286e301461036d578063b59e27d514610385578063b5f860591461039d578063b895741c146103be578063b9e3e2db146103d3578063f2fde38b146103e8575b600080fd5b34801561015957600080fd5b50610162610409565b60408051918252519081900360200190f35b34801561018057600080fd5b5061016261040f565b34801561019557600080fd5b506101a1600435610415565b005b3480156101af57600080fd5b506101b861060d565b60408051600160a060020a039092168252519081900360200190f35b3480156101e057600080fd5b506101a160043560243561061c565b3480156101fb57600080fd5b506101a1610643565b34801561021057600080fd5b506101a160043560243561066a565b34801561022b57600080fd5b50610162610688565b34801561024057600080fd5b506101a161068e565b34801561025557600080fd5b506101a16106a3565b34801561026a57600080fd5b50610276600435610700565b60408051600160a060020a03909316835260208301919091528051918290030190f35b3480156102a557600080fd5b50610162600160a060020a0360043516610736565b3480156102c657600080fd5b506101b8610748565b3480156102db57600080fd5b506101a1600160a060020a0360043516610757565b3480156102fc57600080fd5b5061030561078c565b604080519115158252519081900360200190f35b34801561032557600080fd5b5061016261079d565b34801561033a57600080fd5b506101a16107a3565b34801561034f57600080fd5b50610162610951565b34801561036457600080fd5b506101b8610957565b34801561037957600080fd5b506101a1600435610966565b34801561039157600080fd5b5061016260043561097e565b3480156103a957600080fd5b506101a1600160a060020a0360043516610992565b3480156103ca57600080fd5b506103056109c7565b3480156103df57600080fd5b506101626109d0565b3480156103f457600080fd5b506101a1600160a060020a03600435166109d6565b60375481565b60325b90565b600061041f610d0b565b600080600061042c610d0b565b610434610d0b565b33600090815260026020526040902054965087871215610461573360009081526002602052604090208890555b6001546032111561050557604080518082019091523381526020810189815260018054808201825560009190915282517fb10e2d527612073b26eecdfd717e6a320cf44b4afac2b0732d9fcbe2b7fa0cf660029092029182018054600160a060020a031916600160a060020a0390921691909117905590517fb10e2d527612073b26eecdfd717e6a320cf44b4afac2b0732d9fcbe2b7fa0cf7909101559550610603565b60018054600090811061051457fe5b906000526020600020906002020160010154945060009350600192505b60015483101561059a57600180548490811061054957fe5b6000918252602091829020604080518082019091526002909202018054600160a060020a0316825260010154918101829052925085131561058f57816020015194508293505b600190920191610531565b878512156106035750604080518082019091523381526020810188905260018054829190869081106105c857fe5b60009182526020918290208351600292909202018054600160a060020a031916600160a060020a039092169190911781559101516001909101555b5050505050505050565b600354600160a060020a031681565b61062461078c565b151561062f57600080fd5b806005836032811061063d57fe5b01555050565b61064b61078c565b151561065657600080fd5b42603a556000610667600182610d22565b50565b61067261078c565b151561067d57600080fd5b603791909155603855565b60395481565b61069661078c565b15156106a157600080fd5b565b6106ab61078c565b15156106b657600080fd5b60008054604051600160a060020a03909116907f8be0079c531659141344cd1fd0a4f28419497f9722a3daafe3b4186f6b6457e0908390a360008054600160a060020a0319169055565b600180548290811061070e57fe5b600091825260209091206002909102018054600190910154600160a060020a03909116915082565b60026020526000908152604090205481565b600054600160a060020a031690565b61075f61078c565b151561076a57600080fd5b60038054600160a060020a031916600160a060020a0392909216919091179055565b600054600160a060020a0316331490565b603a5481565b6000606060006107b1610d0b565b6107b961078c565b15156107c457600080fd5b6107cc6109c7565b151561083957604080517f08c379a000000000000000000000000000000000000000000000000000000000815260206004820152601260248201527f536561736f6e20696e2070726f67726573730000000000000000000000000000604482015290519081900360640190fd5b61084b6038546039546038540161066a565b610853610951565b93508360405190808252806020026020018201604052801561088f57816020015b61087c610d0b565b8152602001906001900390816108745790505b509250600091505b838210156109085760018054839081106108ad57fe5b6000918252602091829020604080518082019091526002909202018054600160a060020a031682526001015491810191909152835190915081908490849081106108f357fe5b60209081029091010152600190910190610897565b610911836109f2565b600091505b8382101561094b57610940838381518110151561092f57fe5b602090810290910101515183610adf565b600190910190610916565b50505050565b60015490565b600454600160a060020a031681565b61096e61078c565b151561097957600080fd5b603955565b6005816032811061098b57fe5b0154905081565b61099a61078c565b15156109a557600080fd5b60048054600160a060020a031916600160a060020a0392909216919091179055565b60385442101590565b60385481565b6109de61078c565b15156109e957600080fd5b61066781610c9b565b60008060006109ff610d0b565b84519350600092505b83831015610ad8578260010191505b83821015610acd578482815181101515610a2d57fe5b90602001906020020151602001518584815181101515610a4957fe5b90602001906020020151602001511315610ac2578483815181101515610a6b57fe5b9060200190602002015190508482815181101515610a8557fe5b906020019060200201518584815181101515610a9d57fe5b6020908102909101015284518190869084908110610ab757fe5b602090810290910101525b600190910190610a17565b600190920191610a08565b5050505050565b6000610ae961078c565b1515610af457600080fd5b60058260328110610b0157fe5b015460035460048054604080517f095ea7b3000000000000000000000000000000000000000000000000000000008152600160a060020a039283169381019390935260248301859052519394509091169163095ea7b3916044808201926020929091908290030181600087803b158015610b7a57600080fd5b505af1158015610b8e573d6000803e3d6000fd5b505050506040513d6020811015610ba457600080fd5b505060035460048054604080517f23b872dd000000000000000000000000000000000000000000000000000000008152600160a060020a0392831693810193909352868216602484015260448301859052519216916323b872dd916064808201926020929091908290030181600087803b158015610c2157600080fd5b505af1158015610c35573d6000803e3d6000fd5b505050506040513d6020811015610c4b57600080fd5b505060408051600160a060020a03851681526020810184905280820183905290517f3d5c4db1fa54df9a127fcef41d90b4c4b4713d0fcc274ca1061b6995ed0100249181900360600190a1505050565b600160a060020a0381161515610cb057600080fd5b60008054604051600160a060020a03808516939216917f8be0079c531659141344cd1fd0a4f28419497f9722a3daafe3b4186f6b6457e091a360008054600160a060020a031916600160a060020a0392909216919091179055565b604080518082019091526000808252602082015290565b815481835581811115610d4e57600202816002028360005260206000209182019101610d4e9190610d53565b505050565b61041291905b80821115610d7e578054600160a060020a031916815560006001820155600201610d59565b50905600a165627a7a72305820f6f940e56e35f6c426f4616a548ae1bf02e0cee2ea5a34affd5b70d591e993180029",
  "source": "pragma solidity 0.4.24;\r\n//pragma solidity ^0.4.25;\r\n\r\n//import \"./base/Ownable.sol\";\r\n\r\nimport \"./herc/herc20.sol\";\r\n\r\n// A contract to manage players' top scores.\r\ncontract PlayerScore is Ownable\r\n{\r\n    // Represents the maximum amount of\r\n    // stored top scores.\r\n    uint constant m_maxScores = 50;\r\n    \r\n    // Represents the player-score entry.\r\n    struct Score\r\n    {\r\n        address player;\r\n        int score;\r\n    }\r\n    \r\n    /// <summary>\r\n    /// Most relevant scores stored in this contract.\r\n    /// </summary>\r\n    Score[] public TopScores;\r\n    \r\n    // Maps each player with its own score.\r\n    mapping(address=>int) public Scores;\r\n    \r\n    /// <summary>\r\n    /// Sets the score for current sender.\r\n    /// If no score exists, a new one is created.\r\n    /// </summary>\r\n    function SetScore(int score) public\r\n    {\r\n        int currentScore = Scores[msg.sender];\r\n        \r\n        // Replace the old score with the new one\r\n        // if it is higher.\r\n        if(currentScore < score)\r\n        {\r\n            Scores[msg.sender] = score;\r\n        }\r\n        \r\n        // Now we populate the top scores array.\r\n        if(TopScores.length < m_maxScores)\r\n        {\r\n            // If we didn't reach yet the maximum stored\r\n            // scores amount, we simply add the new entry.\r\n            Score memory newScore = Score(msg.sender, score);\r\n            TopScores.push(newScore);\r\n        }\r\n        else\r\n        {\r\n            // If we reached the maximum stored scores amount,\r\n            // we have to verify if the new received score is\r\n            // higher than the lowest one in the top scores array.\r\n            int lowestScore = TopScores[0].score;\r\n            uint lowestScoreIndex = 0;\r\n            \r\n            // We search for the lowest stored score.\r\n            for(uint i = 1; i < TopScores.length; i++)\r\n            {\r\n                Score memory current = TopScores[i];\r\n                if(lowestScore > current.score)\r\n                {\r\n                    lowestScore = current.score;\r\n                    lowestScoreIndex = i;\r\n                }\r\n            }\r\n            \r\n            // Now we can check our new pushed score against\r\n            // the lowest one.\r\n            if(lowestScore < score)\r\n            {\r\n                Score memory newScoreToReplace = Score(msg.sender, score);\r\n                TopScores[lowestScoreIndex] = newScoreToReplace;\r\n            }\r\n        }\r\n    }\r\n    \r\n    /// <summary>\r\n    /// Get the amount of top scores.\r\n    /// </summary>\r\n    function GetTopScoresCount() view public returns (uint)\r\n    {\r\n        return TopScores.length;\r\n    }\r\n\r\n    function GetTopScoresMax() view public returns (uint)\r\n    {\r\n        return m_maxScores;\r\n    }\r\n\r\n    // SECURE [\r\n\r\n    function SetScoreSecure() \r\n        public\r\n        onlyOwner\r\n    {\r\n        // todo: review requirements\r\n    }\r\n\r\n    // SECURE ]\r\n\r\n    // PAYOUT LOGIC [\r\n\r\n    // CONFIGURE PAYOUTS [\r\n\r\n    address public hercContract;\r\n    address public payoutBoss;\r\n    uint[m_maxScores] public winnerReward;\r\n\r\n    function SetHERCTokenAddress(address hercContract_)\r\n        public\r\n        onlyOwner\r\n    {\r\n        hercContract = hercContract_;\r\n    }\r\n\r\n    function SetPayoutAddress(address boss)\r\n        public\r\n        onlyOwner\r\n    {\r\n        payoutBoss = boss;\r\n    }\r\n\r\n    function SetWinnerReward(uint rank, uint reward)\r\n        public\r\n        onlyOwner\r\n    {\r\n        winnerReward[rank] = reward;\r\n    }\r\n\r\n    // CONFIGURE PAYOUTS ]\r\n    // SEASON DATE [\r\n\r\n    uint public startDate;\r\n    uint public releaseDate;\r\n    uint public seasonInterval=9;\r\n    uint public lastWipeDate=9;\r\n\r\n    function SetNextSeasonReleaseDate(uint startDate_, uint releaseDate_)\r\n        public\r\n        onlyOwner\r\n    {\r\n        startDate = startDate_;\r\n        releaseDate = releaseDate_;\r\n    }\r\n\r\n    function SetSeasonInterval(uint interval)\r\n        public\r\n        onlyOwner\r\n    {\r\n        seasonInterval = interval;\r\n//        lastWipeDate = interval;\r\n    }\r\n\r\n    function IsSeasonOver()\r\n        public\r\n        view\r\n        returns(bool)\r\n    {\r\n        return (now >= releaseDate);\r\n    }\r\n\r\n    // SEASON DATE ]\r\n    // SEASON PAYOUT [\r\n\r\n    function PayoutToWinners()\r\n        public\r\n        onlyOwner\r\n    {\r\n        require (IsSeasonOver(), \"Season in progress\");\r\n\r\n        // update season\r\n        SetNextSeasonReleaseDate(releaseDate, releaseDate + seasonInterval);\r\n\r\n        // move scores to memory for sort and progress\r\n        uint count = GetTopScoresCount();\r\n\r\n        Score[] memory scores = new Score[](count);\r\n\r\n        uint i;\r\n        for (i = 0; i < count; i++) {\r\n            Score memory score = TopScores[i];\r\n            //scores.push(score);\r\n            scores[i] = score;\r\n        }\r\n        \r\n        sortScores(scores);\r\n\r\n        // clean up scores for prevet double spent\r\n        //WipeScores();\r\n\r\n        for (i = 0; i < count; i++) {\r\n            payoutScore(scores[i].player, i);\r\n        }\r\n    }\r\n\r\n    event WinnerPayout(address player, uint rank, uint reward);\r\n\r\n    function payoutScore(address player, uint rank)\r\n        internal\r\n        onlyOwner\r\n    {\r\n        uint reward = winnerReward[rank];\r\n\r\n        HERCToken(hercContract).approve(payoutBoss, reward);\r\n\r\n        HERCToken(hercContract).transferFrom(payoutBoss, player, reward);\r\n\r\n        emit WinnerPayout(player, rank, reward);\r\n    }\r\n\r\n    function WipeScores()\r\n        public\r\n        onlyOwner\r\n    {\r\n        lastWipeDate = now;\r\n        TopScores.length = 0;\r\n    }\r\n\r\n    // SEASON PAYOUT ]\r\n    // UTILS [\r\n\r\n    function sortScores(Score[] memory scores)\r\n        internal\r\n    {\r\n        uint l = scores.length;\r\n        for(uint i = 0; i < l; i++) {\r\n            for(uint j = i+1; j < l ;j++) {\r\n                if(scores[i].score > scores[j].score) {\r\n                    Score memory temp = scores[i];\r\n                    scores[i] = scores[j];\r\n                    scores[j] = temp;\r\n                }\r\n            }\r\n        }\r\n    }\r\n\r\n    // UTILS ]\r\n    // PAYOUT LOGIC ]\r\n}\r\n",
  "sourcePath": "/home/vv/src/herc2/blockchain/contracts-dev/assetVerification/contracts/PlayerScore.sol",
  "compiler": {
    "name": "solc",
    "version": "0.4.24+commit.e67f0147.Emscripten.clang"
  },
  "schemaVersion": "2.0.1",
  "updatedAt": "2019-01-03T15:17:13.792Z"
}