{
  "contractName": "PlayerScore",
  "abi": [
    {
      "constant": true,
      "inputs": [],
      "name": "startDate",
      "outputs": [
        {
          "name": "",
          "type": "uint256"
        }
      ],
      "payable": false,
      "stateMutability": "view",
      "type": "function"
    },
    {
      "constant": true,
      "inputs": [
        {
          "name": "",
          "type": "uint256"
        }
      ],
      "name": "TopScoresSecure",
      "outputs": [
        {
          "name": "player",
          "type": "address"
        },
        {
          "name": "score",
          "type": "int256"
        }
      ],
      "payable": false,
      "stateMutability": "view",
      "type": "function"
    },
    {
      "constant": true,
      "inputs": [],
      "name": "hercContract",
      "outputs": [
        {
          "name": "",
          "type": "address"
        }
      ],
      "payable": false,
      "stateMutability": "view",
      "type": "function"
    },
    {
      "constant": true,
      "inputs": [],
      "name": "seasonInterval",
      "outputs": [
        {
          "name": "",
          "type": "uint256"
        }
      ],
      "payable": false,
      "stateMutability": "view",
      "type": "function"
    },
    {
      "constant": false,
      "inputs": [],
      "name": "renounceOwnership",
      "outputs": [],
      "payable": false,
      "stateMutability": "nonpayable",
      "type": "function"
    },
    {
      "constant": true,
      "inputs": [
        {
          "name": "",
          "type": "uint256"
        }
      ],
      "name": "TopScores",
      "outputs": [
        {
          "name": "player",
          "type": "address"
        },
        {
          "name": "score",
          "type": "int256"
        }
      ],
      "payable": false,
      "stateMutability": "view",
      "type": "function"
    },
    {
      "constant": true,
      "inputs": [
        {
          "name": "",
          "type": "address"
        }
      ],
      "name": "Scores",
      "outputs": [
        {
          "name": "",
          "type": "int256"
        }
      ],
      "payable": false,
      "stateMutability": "view",
      "type": "function"
    },
    {
      "constant": true,
      "inputs": [],
      "name": "owner",
      "outputs": [
        {
          "name": "",
          "type": "address"
        }
      ],
      "payable": false,
      "stateMutability": "view",
      "type": "function"
    },
    {
      "constant": true,
      "inputs": [],
      "name": "isOwner",
      "outputs": [
        {
          "name": "",
          "type": "bool"
        }
      ],
      "payable": false,
      "stateMutability": "view",
      "type": "function"
    },
    {
      "constant": true,
      "inputs": [],
      "name": "lastWipeDate",
      "outputs": [
        {
          "name": "",
          "type": "uint256"
        }
      ],
      "payable": false,
      "stateMutability": "view",
      "type": "function"
    },
    {
      "constant": true,
      "inputs": [],
      "name": "payoutBoss",
      "outputs": [
        {
          "name": "",
          "type": "address"
        }
      ],
      "payable": false,
      "stateMutability": "view",
      "type": "function"
    },
    {
      "constant": true,
      "inputs": [
        {
          "name": "",
          "type": "uint256"
        }
      ],
      "name": "winnerReward",
      "outputs": [
        {
          "name": "",
          "type": "uint256"
        }
      ],
      "payable": false,
      "stateMutability": "view",
      "type": "function"
    },
    {
      "constant": true,
      "inputs": [],
      "name": "releaseDate",
      "outputs": [
        {
          "name": "",
          "type": "uint256"
        }
      ],
      "payable": false,
      "stateMutability": "view",
      "type": "function"
    },
    {
      "constant": false,
      "inputs": [
        {
          "name": "newOwner",
          "type": "address"
        }
      ],
      "name": "transferOwnership",
      "outputs": [],
      "payable": false,
      "stateMutability": "nonpayable",
      "type": "function"
    },
    {
      "anonymous": false,
      "inputs": [
        {
          "indexed": false,
          "name": "player",
          "type": "address"
        },
        {
          "indexed": false,
          "name": "rank",
          "type": "uint256"
        },
        {
          "indexed": false,
          "name": "reward",
          "type": "uint256"
        }
      ],
      "name": "WinnerPayout",
      "type": "event"
    },
    {
      "anonymous": false,
      "inputs": [
        {
          "indexed": true,
          "name": "previousOwner",
          "type": "address"
        },
        {
          "indexed": true,
          "name": "newOwner",
          "type": "address"
        }
      ],
      "name": "OwnershipTransferred",
      "type": "event"
    },
    {
      "constant": false,
      "inputs": [
        {
          "name": "score",
          "type": "int256"
        }
      ],
      "name": "SetScore",
      "outputs": [],
      "payable": false,
      "stateMutability": "nonpayable",
      "type": "function"
    },
    {
      "constant": true,
      "inputs": [],
      "name": "GetTopScoresCount",
      "outputs": [
        {
          "name": "",
          "type": "uint256"
        }
      ],
      "payable": false,
      "stateMutability": "view",
      "type": "function"
    },
    {
      "constant": true,
      "inputs": [],
      "name": "GetTopScoresMax",
      "outputs": [
        {
          "name": "",
          "type": "uint256"
        }
      ],
      "payable": false,
      "stateMutability": "view",
      "type": "function"
    },
    {
      "constant": true,
      "inputs": [],
      "name": "GetTopScoresSecureCount",
      "outputs": [
        {
          "name": "",
          "type": "uint256"
        }
      ],
      "payable": false,
      "stateMutability": "view",
      "type": "function"
    },
    {
      "constant": false,
      "inputs": [
        {
          "name": "player",
          "type": "address"
        },
        {
          "name": "score",
          "type": "int256"
        }
      ],
      "name": "SetScoreSecure",
      "outputs": [],
      "payable": false,
      "stateMutability": "nonpayable",
      "type": "function"
    },
    {
      "constant": true,
      "inputs": [
        {
          "name": "_addr",
          "type": "address"
        }
      ],
      "name": "addressToString",
      "outputs": [
        {
          "name": "",
          "type": "string"
        }
      ],
      "payable": false,
      "stateMutability": "view",
      "type": "function"
    },
    {
      "constant": true,
      "inputs": [
        {
          "name": "smsg",
          "type": "string"
        },
        {
          "name": "v",
          "type": "uint8"
        },
        {
          "name": "r",
          "type": "bytes32"
        },
        {
          "name": "s",
          "type": "bytes32"
        }
      ],
      "name": "verifySign",
      "outputs": [
        {
          "name": "",
          "type": "address"
        }
      ],
      "payable": false,
      "stateMutability": "view",
      "type": "function"
    },
    {
      "constant": false,
      "inputs": [
        {
          "name": "player",
          "type": "address"
        },
        {
          "name": "score",
          "type": "int256"
        },
        {
          "name": "metrics",
          "type": "string"
        },
        {
          "name": "v",
          "type": "uint8"
        },
        {
          "name": "r",
          "type": "bytes32"
        },
        {
          "name": "s",
          "type": "bytes32"
        }
      ],
      "name": "SetScoreSecureSign",
      "outputs": [],
      "payable": false,
      "stateMutability": "nonpayable",
      "type": "function"
    },
    {
      "constant": false,
      "inputs": [
        {
          "name": "hercContract_",
          "type": "address"
        }
      ],
      "name": "SetHERCTokenAddress",
      "outputs": [],
      "payable": false,
      "stateMutability": "nonpayable",
      "type": "function"
    },
    {
      "constant": false,
      "inputs": [
        {
          "name": "boss",
          "type": "address"
        }
      ],
      "name": "SetPayoutAddress",
      "outputs": [],
      "payable": false,
      "stateMutability": "nonpayable",
      "type": "function"
    },
    {
      "constant": false,
      "inputs": [
        {
          "name": "rank",
          "type": "uint256"
        },
        {
          "name": "reward",
          "type": "uint256"
        }
      ],
      "name": "SetWinnerReward",
      "outputs": [],
      "payable": false,
      "stateMutability": "nonpayable",
      "type": "function"
    },
    {
      "constant": false,
      "inputs": [
        {
          "name": "startDate_",
          "type": "uint256"
        },
        {
          "name": "releaseDate_",
          "type": "uint256"
        }
      ],
      "name": "SetNextSeasonReleaseDate",
      "outputs": [],
      "payable": false,
      "stateMutability": "nonpayable",
      "type": "function"
    },
    {
      "constant": false,
      "inputs": [
        {
          "name": "interval",
          "type": "uint256"
        }
      ],
      "name": "SetSeasonInterval",
      "outputs": [],
      "payable": false,
      "stateMutability": "nonpayable",
      "type": "function"
    },
    {
      "constant": true,
      "inputs": [],
      "name": "IsSeasonOver",
      "outputs": [
        {
          "name": "",
          "type": "bool"
        }
      ],
      "payable": false,
      "stateMutability": "view",
      "type": "function"
    },
    {
      "constant": false,
      "inputs": [],
      "name": "PayoutToWinners",
      "outputs": [],
      "payable": false,
      "stateMutability": "nonpayable",
      "type": "function"
    },
    {
      "constant": false,
      "inputs": [],
      "name": "WipeScores",
      "outputs": [],
      "payable": false,
      "stateMutability": "nonpayable",
      "type": "function"
    }
  ],
  "bytecode": "0x60806040819052600060038190556009606d819055606e558054600160a060020a0319163317808255600160a060020a0316917f8be0079c531659141344cd1fd0a4f28419497f9722a3daafe3b4186f6b6457e0908290a36118f5806100666000396000f30060806040526004361061017f5763ffffffff7c01000000000000000000000000000000000000000000000000000000006000350416630b97bc8681146101845780630d3a9c82146101ab5780631b3e093c146101c05780631b5eb190146101fb57806324ad6bcc1461021557806325ed252c1461024657806326ee1cdc14610261578063460dba691461027657806349bbefde146102de57806351132bbb146102f95780635313223e146103715780635e57966d14610386578063715018a61461041c578063747b24b71461043157806379a9b5f2146104495780638730925f1461046d5780638da5cb5b1461048e5780638e068aa4146104a35780638f32d59b146104c45780638ff2aa54146104ed57806392f0b13e14610502578063a4af7f6414610517578063ad94361d1461052c578063b0286e3014610541578063b59e27d514610559578063b5f8605914610571578063b895741c14610592578063b9e3e2db146105a7578063f2fde38b146105bc578063f6393d65146105dd575b600080fd5b34801561019057600080fd5b506101996105f2565b60408051918252519081900360200190f35b3480156101b757600080fd5b506101996105f8565b3480156101cc57600080fd5b506101d86004356105fd565b60408051600160a060020a03909316835260208301919091528051918290030190f35b34801561020757600080fd5b50610213600435610633565b005b34801561022157600080fd5b5061022a61082b565b60408051600160a060020a039092168252519081900360200190f35b34801561025257600080fd5b5061021360043560243561083a565b34801561026d57600080fd5b50610213610861565b34801561028257600080fd5b506040805160206004803580820135601f810184900484028501840190955284845261022a9436949293602493928401919081908401838280828437509497505050833560ff169450505060208201359160400135905061087f565b3480156102ea57600080fd5b50610213600435602435610a64565b34801561030557600080fd5b50604080516020600460443581810135601f8101849004840285018401909552848452610213948235600160a060020a03169460248035953695946064949201919081908401838280828437509497505050833560ff1694505050602082013591604001359050610a82565b34801561037d57600080fd5b50610199610c47565b34801561039257600080fd5b506103a7600160a060020a0360043516610c4d565b6040805160208082528351818301528351919283929083019185019080838360005b838110156103e15781810151838201526020016103c9565b50505050905090810190601f16801561040e5780820380516001836020036101000a031916815260200191505b509250505060405180910390f35b34801561042857600080fd5b50610213610e53565b34801561043d57600080fd5b506101d8600435610eb0565b34801561045557600080fd5b50610213600160a060020a0360043516602435610ebe565b34801561047957600080fd5b50610199600160a060020a03600435166110f5565b34801561049a57600080fd5b5061022a611107565b3480156104af57600080fd5b50610213600160a060020a0360043516611116565b3480156104d057600080fd5b506104d961114b565b604080519115158252519081900360200190f35b3480156104f957600080fd5b5061019961115c565b34801561050e57600080fd5b50610213611162565b34801561052357600080fd5b50610199611310565b34801561053857600080fd5b5061022a611316565b34801561054d57600080fd5b50610213600435611325565b34801561056557600080fd5b5061019960043561133d565b34801561057d57600080fd5b50610213600160a060020a0360043516611351565b34801561059e57600080fd5b506104d9611386565b3480156105b357600080fd5b5061019961138f565b3480156105c857600080fd5b50610213600160a060020a0360043516611395565b3480156105e957600080fd5b506101996113b4565b606b5481565b606490565b600480548290811061060b57fe5b600091825260209091206002909102018054600190910154600160a060020a03909116915082565b600061063d6118b2565b600080600061064a6118b2565b6106526118b2565b3360009081526002602052604090205496508787121561067f573360009081526002602052604090208890555b6001546064111561072357604080518082019091523381526020810189815260018054808201825560009190915282517fb10e2d527612073b26eecdfd717e6a320cf44b4afac2b0732d9fcbe2b7fa0cf660029092029182018054600160a060020a031916600160a060020a0390921691909117905590517fb10e2d527612073b26eecdfd717e6a320cf44b4afac2b0732d9fcbe2b7fa0cf7909101559550610821565b60018054600090811061073257fe5b906000526020600020906002020160010154945060009350600192505b6001548310156107b857600180548490811061076757fe5b6000918252602091829020604080518082019091526002909202018054600160a060020a031682526001015491810182905292508513156107ad57816020015194508293505b60019092019161074f565b878512156108215750604080518082019091523381526020810188905260018054829190869081106107e657fe5b60009182526020918290208351600292909202018054600160a060020a031916600160a060020a039092169190911781559101516001909101555b5050505050505050565b600554600160a060020a031681565b61084261114b565b151561084d57600080fd5b806007836064811061085b57fe5b01555050565b61086961114b565b151561087457600080fd5b42606e556000600355565b6000806060600080886040518082805190602001908083835b602083106108b75780518252601f199092019160209182019101610898565b51815160209384036101000a6000190180199092169116179052604080519290940182900382208285018552601c8084527f19457468657265756d205369676e6564204d6573736167653a0a3332000000008484019081529551919b509299508996508a95500192839250908083835b602083106109465780518252601f199092019160209182019101610927565b51815160209384036101000a600019018019909216911617905292019384525060408051808503815293820190819052835193945092839250908401908083835b602083106109a65780518252601f199092019160209182019101610987565b6001836020036101000a03801982511681845116808217855250505050505090500191505060405180910390209150600182898989604051600081526020016040526040518085600019166000191681526020018460ff1660ff1681526020018360001916600019168152602001826000191660001916815260200194505050505060206040516020810390808403906000865af1158015610a4c573d6000803e3d6000fd5b5050604051601f1901519a9950505050505050505050565b610a6c61114b565b1515610a7757600080fd5b606b91909155606c55565b60608060606000610a928a610c4d565b9350610a9d896113ba565b92508383896040516020018084805190602001908083835b60208310610ad45780518252601f199092019160209182019101610ab5565b51815160209384036101000a600019018019909216911617905286519190930192860191508083835b60208310610b1c5780518252601f199092019160209182019101610afd565b51815160209384036101000a600019018019909216911617905285519190930192850191508083835b60208310610b645780518252601f199092019160209182019101610b45565b6001836020036101000a03801982511681845116808217855250505050505090500160000160000193505050506040516020818303038152906040529150610bae8288888861087f565b9050610bb8611107565b600160a060020a03828116911614610c3157604080517f08c379a000000000000000000000000000000000000000000000000000000000815260206004820152601460248201527f636865636b207369676e6174757265206661696c000000000000000000000000604482015290519081900360640190fd5b610c3b8a8a6114a0565b50505050505050505050565b606d5481565b604080518082018252601081527f303132333435363738396162636465660000000000000000000000000000000060208201528151602a8082526060828101909452600160a060020a03851692918491600091908160200160208202803883390190505091507f3000000000000000000000000000000000000000000000000000000000000000826000815181101515610ce357fe5b906020010190600160f860020a031916908160001a9053507f7800000000000000000000000000000000000000000000000000000000000000826001815181101515610d2b57fe5b906020010190600160f860020a031916908160001a905350600090505b6014811015610e465782600485600c840160208110610d6357fe5b1a60f860020a02600160f860020a0319169060020a900460f860020a9004815181101515610d8d57fe5b90602001015160f860020a900460f860020a028282600202600201815181101515610db457fe5b906020010190600160f860020a031916908160001a9053508284600c830160208110610ddc57fe5b1a60f860020a02600f60f860020a021660f860020a9004815181101515610dff57fe5b90602001015160f860020a900460f860020a028282600202600301815181101515610e2657fe5b906020010190600160f860020a031916908160001a905350600101610d48565b8194505b50505050919050565b610e5b61114b565b1515610e6657600080fd5b60008054604051600160a060020a03909116907f8be0079c531659141344cd1fd0a4f28419497f9722a3daafe3b4186f6b6457e0908390a360008054600160a060020a0319169055565b600180548290811061060b57fe5b6000610ec86118b2565b6000806000610ed56118b2565b610edd6118b2565b610ee561114b565b1515610ef057600080fd5b600160a060020a038916600090815260026020526040902054965087871215610f2f57600160a060020a03891660009081526002602052604090208890555b60646003541015610fe25760408051808201909152600160a060020a038a81168252602082018a8152600480546001808201835560009290925284517f8a35acfbc15ff81a39ae7d344fd709f28e8600b4aa8c65c6b64bfe7fe36bd19b60029092029182018054600160a060020a031916919095161790935590517f8a35acfbc15ff81a39ae7d344fd709f28e8600b4aa8c65c6b64bfe7fe36bd19c9092019190915560038054909101905595506110ea565b600480546000908110610ff157fe5b906000526020600020906002020160010154945060009350600192505b60035483101561107757600480548490811061102657fe5b6000918252602091829020604080518082019091526002909202018054600160a060020a0316825260010154918101829052925085131561106c57816020015194508293505b60019092019161100e565b878512156110ea5760408051908101604052808a600160a060020a03168152602001898152509050806004858154811015156110af57fe5b60009182526020918290208351600292909202018054600160a060020a031916600160a060020a039092169190911781559101516001909101555b505050505050505050565b60026020526000908152604090205481565b600054600160a060020a031690565b61111e61114b565b151561112957600080fd5b60058054600160a060020a031916600160a060020a0392909216919091179055565b600054600160a060020a0316331490565b606e5481565b6000606060006111706118b2565b61117861114b565b151561118357600080fd5b61118b611386565b15156111f857604080517f08c379a000000000000000000000000000000000000000000000000000000000815260206004820152601260248201527f536561736f6e20696e2070726f67726573730000000000000000000000000000604482015290519081900360640190fd5b61120a606c54606d54606c5401610a64565b6112126113b4565b93508360405190808252806020026020018201604052801561124e57816020015b61123b6118b2565b8152602001906001900390816112335790505b509250600091505b838210156112c757600480548390811061126c57fe5b6000918252602091829020604080518082019091526002909202018054600160a060020a031682526001015491810191909152835190915081908490849081106112b257fe5b60209081029091010152600190910190611256565b6112d083611646565b600091505b8382101561130a576112ff83838151811015156112ee57fe5b602090810290910101515183611733565b6001909101906112d5565b50505050565b60015490565b600654600160a060020a031681565b61132d61114b565b151561133857600080fd5b606d55565b6007816064811061134a57fe5b0154905081565b61135961114b565b151561136457600080fd5b60068054600160a060020a031916600160a060020a0392909216919091179055565b606c5442101590565b606c5481565b61139d61114b565b15156113a857600080fd5b6113b181611842565b50565b60035490565b606060008082818515156114035760408051808201909152600181527f300000000000000000000000000000000000000000000000000000000000000060208201529450610e4a565b8593505b831561141e57600190920191600a84049350611407565b826040519080825280601f01601f19166020018201604052801561144c578160200160208202803883390190505b5091505060001982015b8515610e4657815160001982019160f860020a6030600a8a06010291849190811061147d57fe5b906020010190600160f860020a031916908160001a905350600a86049550611456565b60006114aa6118b2565b60008060006114b76118b2565b6114bf6118b2565b600160a060020a0389166000908152600260205260409020549650878712156114fe57600160a060020a03891660009081526002602052604090208890555b606460035410156115b15760408051808201909152600160a060020a038a81168252602082018a8152600480546001808201835560009290925284517f8a35acfbc15ff81a39ae7d344fd709f28e8600b4aa8c65c6b64bfe7fe36bd19b60029092029182018054600160a060020a031916919095161790935590517f8a35acfbc15ff81a39ae7d344fd709f28e8600b4aa8c65c6b64bfe7fe36bd19c9092019190915560038054909101905595506110ea565b6004805460009081106115c057fe5b906000526020600020906002020160010154945060009350600192505b6003548310156110775760048054849081106115f557fe5b6000918252602091829020604080518082019091526002909202018054600160a060020a0316825260010154918101829052925085131561163b57816020015194508293505b6001909201916115dd565b60008060006116536118b2565b84519350600092505b8383101561172c578260010191505b8382101561172157848281518110151561168157fe5b9060200190602002015160200151858481518110151561169d57fe5b906020019060200201516020015113156117165784838151811015156116bf57fe5b90602001906020020151905084828151811015156116d957fe5b9060200190602002015185848151811015156116f157fe5b602090810290910101528451819086908490811061170b57fe5b602090810290910101525b60019091019061166b565b60019092019161165c565b5050505050565b600061173d61114b565b151561174857600080fd5b6007826064811061175557fe5b0154600554604080517f095ea7b3000000000000000000000000000000000000000000000000000000008152600160a060020a03878116600483015260248201859052915193945091169163095ea7b3916044808201926020929091908290030181600087803b1580156117c857600080fd5b505af11580156117dc573d6000803e3d6000fd5b505050506040513d60208110156117f257600080fd5b505060408051600160a060020a03851681526020810184905280820183905290517f3d5c4db1fa54df9a127fcef41d90b4c4b4713d0fcc274ca1061b6995ed0100249181900360600190a1505050565b600160a060020a038116151561185757600080fd5b60008054604051600160a060020a03808516939216917f8be0079c531659141344cd1fd0a4f28419497f9722a3daafe3b4186f6b6457e091a360008054600160a060020a031916600160a060020a0392909216919091179055565b6040805180820190915260008082526020820152905600a165627a7a72305820cc0166ea8e857a32893cfd4fdb7580b0de9c93d494f6bfb1fd61ff712683c3ef0029",
  "source": "pragma solidity 0.4.24;\r\n//pragma solidity ^0.4.25;\r\n\r\n//import \"./base/Ownable.sol\";\r\n\r\nimport \"./herc/herc20.sol\";\r\n\r\n// A contract to manage players' top scores.\r\ncontract PlayerScore is Ownable\r\n{\r\n    // Represents the maximum amount of\r\n    // stored top scores.\r\n    uint constant m_maxScores = 100;\r\n    \r\n    // Represents the player-score entry.\r\n    struct Score\r\n    {\r\n        address player;\r\n        int score;\r\n    }\r\n\r\n    // WARNING! UNSECURE OLD NOT USED - todo: review, cleanup & remove [\r\n    \r\n    /// <summary>\r\n    /// Most relevant scores stored in this contract.\r\n    /// </summary>\r\n    Score[] public TopScores;\r\n    \r\n    // Maps each player with its own score.\r\n    mapping(address=>int) public Scores;\r\n    \r\n    /// <summary>\r\n    /// Sets the score for current sender.\r\n    /// If no score exists, a new one is created.\r\n    /// </summary>\r\n    function SetScore(int score) public\r\n    {\r\n        int currentScore = Scores[msg.sender];\r\n        \r\n        // Replace the old score with the new one\r\n        // if it is higher.\r\n        if(currentScore < score)\r\n        {\r\n            Scores[msg.sender] = score;\r\n        }\r\n        \r\n        // Now we populate the top scores array.\r\n        if(TopScores.length < m_maxScores)\r\n        {\r\n            // If we didn't reach yet the maximum stored\r\n            // scores amount, we simply add the new entry.\r\n            Score memory newScore = Score(msg.sender, score);\r\n            TopScores.push(newScore);\r\n        }\r\n        else\r\n        {\r\n            // If we reached the maximum stored scores amount,\r\n            // we have to verify if the new received score is\r\n            // higher than the lowest one in the top scores array.\r\n            int lowestScore = TopScores[0].score;\r\n            uint lowestScoreIndex = 0;\r\n            \r\n            // We search for the lowest stored score.\r\n            for(uint i = 1; i < TopScores.length; i++)\r\n            {\r\n                Score memory current = TopScores[i];\r\n                if(lowestScore > current.score)\r\n                {\r\n                    lowestScore = current.score;\r\n                    lowestScoreIndex = i;\r\n                }\r\n            }\r\n            \r\n            // Now we can check our new pushed score against\r\n            // the lowest one.\r\n            if(lowestScore < score)\r\n            {\r\n                Score memory newScoreToReplace = Score(msg.sender, score);\r\n                TopScores[lowestScoreIndex] = newScoreToReplace;\r\n            }\r\n        }\r\n    }\r\n    \r\n    /// <summary>\r\n    /// Get the amount of top scores.\r\n    /// </summary>\r\n    function GetTopScoresCount() view public returns (uint)\r\n    {\r\n        return TopScores.length;\r\n    }\r\n\r\n    // WARNING! UNSECURE OLD NOT USED - todo: review, cleanup & remove ]\r\n\r\n    function GetTopScoresMax() view public returns (uint)\r\n    {\r\n        return m_maxScores;\r\n    }\r\n\r\n    // SECURE [\r\n\r\n    uint TopScoresSecureCount = 0;\r\n\r\n    Score[] public TopScoresSecure;\r\n\r\n    function GetTopScoresSecureCount() view public returns (uint)\r\n    {\r\n        return TopScoresSecureCount;\r\n    }\r\n\r\n    function SetScoreSecure(address player, int score) \r\n        public\r\n        onlyOwner\r\n    {\r\n        int currentScore = Scores[player];\r\n        \r\n        // Replace the old score with the new one\r\n        // if it is higher.\r\n        if(currentScore < score)\r\n        {\r\n            Scores[player] = score;\r\n        }\r\n        \r\n        // Now we populate the top scores array.\r\n        if(TopScoresSecureCount < m_maxScores)\r\n        {\r\n            // If we didn't reach yet the maximum stored\r\n            // scores amount, we simply add the new entry.\r\n            Score memory newScore = Score(player, score);\r\n            TopScoresSecure.push(newScore);\r\n            TopScoresSecureCount++;\r\n        }\r\n        else\r\n        {\r\n            // If we reached the maximum stored scores amount,\r\n            // we have to verify if the new received score is\r\n            // higher than the lowest one in the top scores array.\r\n            int lowestScore = TopScoresSecure[0].score;\r\n            uint lowestScoreIndex = 0;\r\n            \r\n            // We search for the lowest stored score.\r\n            for(uint i = 1; i < TopScoresSecureCount; i++)\r\n            {\r\n                Score memory current = TopScoresSecure[i];\r\n                if(lowestScore > current.score)\r\n                {\r\n                    lowestScore = current.score;\r\n                    lowestScoreIndex = i;\r\n                }\r\n            }\r\n            \r\n            // Now we can check our new pushed score against\r\n            // the lowest one.\r\n            if(lowestScore < score)\r\n            {\r\n                Score memory newScoreToReplace = Score(player, score);\r\n                TopScoresSecure[lowestScoreIndex] = newScoreToReplace;\r\n            }\r\n        }\r\n    }\r\n/*\r\n    function uintToString(uint v) public view returns (string)\r\n    {\r\n        uint maxlength = 100;\r\n        bytes memory reversed = new bytes(maxlength);\r\n        uint i = 0;\r\n        while (v != 0) {\r\n            uint remainder = v % 10;\r\n            v = v / 10;\r\n            reversed[i++] = byte(48 + remainder);\r\n        }\r\n        bytes memory s = new bytes(i + 1);\r\n        for (uint j = 0; j <= i; j++) {\r\n            s[j] = reversed[i - j];\r\n        }\r\n        return string(s);\r\n    }\r\n*/\r\n\r\n    // 0.5 Compiler Version:\r\n/*\r\n    function uintToString(uint _i) internal pure returns (string memory _uintAsString) {\r\n        if (_i == 0) {\r\n            return \"0\";\r\n        }\r\n        uint j = _i;\r\n        uint len;\r\n        while (j != 0) {\r\n            len++;\r\n            j /= 10;\r\n        }\r\n        bytes memory bstr = new bytes(len);\r\n        uint k = len - 1;\r\n        while (_i != 0) {\r\n            bstr[k--] = byte(uint8(48 + _i % 10));\r\n            _i /= 10;\r\n        }\r\n        return string(bstr);\r\n    }\r\n*/\r\n    //Pre 0.5 Compiler Version:\r\n\r\n    function uintToString(uint i) internal view returns (string)\r\n    {\r\n        if (i == 0) return \"0\";\r\n        uint j = i;\r\n        uint length;\r\n        while (j != 0){\r\n            length++;\r\n            j /= 10;\r\n        }\r\n        bytes memory bstr = new bytes(length);\r\n        uint k = length - 1;\r\n        while (i != 0){\r\n            bstr[k--] = byte(48 + i % 10);\r\n            i /= 10;\r\n        }\r\n        return string(bstr);\r\n    }\r\n\r\n    function addressToString(address _addr) public view returns(string) {\r\n        bytes32 value = bytes32(uint256(_addr));\r\n        bytes memory alphabet = \"0123456789abcdef\";\r\n\r\n        bytes memory str = new bytes(42);\r\n        str[0] = \"0\";\r\n        str[1] = \"x\";\r\n        for (uint i = 0; i < 20; i++) {\r\n            str[2+i*2] = alphabet[uint(value[i + 12] >> 4)];\r\n            str[3+i*2] = alphabet[uint(value[i + 12] & 0x0f)];\r\n        }\r\n        return string(str);\r\n    }\r\n/*\r\n    function debugS1(address player) public view returns (string) {\r\n        string memory s1 = addressToString(player);\r\n        return s1;\r\n    }\r\n\r\n    function debugS2(uint score) public view returns (string) {\r\n        string memory s2 = uintToString(score);\r\n        return s2;\r\n    }\r\n\r\n    function debugS3(string s1, string s2, string metrics) view public returns (string) {\r\n        string memory smsg = string(abi.encodePacked(s1, s2, metrics, \"\", \"\"));\r\n        return smsg;\r\n    }\r\n\r\n    function debugS4(string s1, string s2, string metrics) view public returns (bytes32) {\r\n        string memory smsg = string(abi.encodePacked(s1, s2, metrics, \"\", \"\"));\r\n        bytes32 h = keccak256(bytes(smsg));\r\n        return h;\r\n    }\r\n    function debugS5(string s1, string s2, string metrics) view public returns (bytes32) {\r\n        string memory smsg = string(abi.encodePacked(s1, s2, metrics, \"\", \"\"));\r\n        bytes32 h = keccak256(bytes(smsg));\r\n        bytes memory prefix = \"\\x19Ethereum Signed Message:\\n32\";\r\n        bytes32 prefixedHash = keccak256(abi.encodePacked(prefix, h));\r\n        return prefixedHash;\r\n    }\r\n*/\r\n    function verifySign(string smsg, uint8 v, bytes32 r, bytes32 s) public view returns (address) {\r\n        bytes32 h = keccak256(bytes(smsg));\r\n        bytes memory prefix = \"\\x19Ethereum Signed Message:\\n32\";\r\n//        bytes32 prefixedHash = keccak256(prefix, h);\r\n//        bytes32 prefixedHash = sign(keccak256(\"\\x19Ethereum Signed Message:\\n\" + len(smsg) + smsg));\r\n        bytes32 prefixedHash = keccak256(abi.encodePacked(prefix, h));\r\n        address addr = ecrecover(prefixedHash, v, r, s);        \r\n        return addr;\r\n    }\r\n/*\r\n    function verifySignH(bytes32 h, uint8 v, bytes32 r, bytes32 s) public view returns (address) {\r\n        bytes memory prefix = \"\\x19Ethereum Signed Message:\\n32\";\r\n        bytes32 prefixedHash = keccak256(abi.encodePacked(prefix, h));\r\n        address addr = ecrecover(prefixedHash, v, r, s);\r\n        return addr;\r\n    }\r\n\r\n    function verifySignNoPrefix(string smsg, uint8 v, bytes32 r, bytes32 s) public view returns (address) {\r\n        bytes32 h = keccak256(bytes(smsg));\r\n        address addr = ecrecover(h, v, r, s);\r\n        return addr;\r\n    }\r\n\r\n    function verifySignNoPrefixH(bytes32 h, uint8 v, bytes32 r, bytes32 s) public view returns (address) {\r\n        address addr = ecrecover(h, v, r, s);\r\n        return addr;\r\n    }\r\n*/\r\n    function SetScoreSecureSign(address player, int score, string metrics, uint8 v, bytes32 r, bytes32 s) \r\n        public\r\n    {\r\n//        address player = msg.sender;\r\n\r\n        // Make string [\r\n        // format: 0xPLAYER SCORE METRICS\r\n\r\n        string memory s1 = addressToString(player);\r\n        string memory s2 = uintToString(uint(score));\r\n//        string memory smsg = string(abi.encodePacked(s1, s2, metrics, \"\", \"\"));\r\n        string memory smsg = string(abi.encodePacked(s1, s2, metrics, \"\", \"\"));\r\n\r\n        address addr = verifySign(smsg, v, r, s);\r\n/*\r\n        bytes32 h = keccak256(bytes(smsg));\r\n\r\n        // Make string [\r\n        // Verify signature [\r\n\r\n        bytes memory prefix = \"\\x19Ethereum Signed Message:\\n32\";\r\n\r\n//        bytes32 prefixedHash = sha3(prefix, h);\r\n//        bytes32 prefixedHash = sign(keccak256(\"\\x19Ethereum Signed Message:\\n\" + len(smsg) + smsg));\r\n        bytes32 prefixedHash = keccak256(abi.encodePacked(prefix, h));\r\n\r\n        address addr = ecrecover(prefixedHash, v, r, s);\r\n*/\r\n\r\n        require(addr == owner(), \"check signature fail\");\r\n\r\n        // Verify signature ]\r\n\r\n        SetScoreSecureSignInternal(player, score);\r\n    }\r\n\r\n    function SetScoreSecureSignInternal(address player, int score) \r\n        internal\r\n    {\r\n        int currentScore = Scores[player];\r\n        \r\n        // Replace the old score with the new one\r\n        // if it is higher.\r\n        if(currentScore < score)\r\n        {\r\n            Scores[player] = score;\r\n        }\r\n        \r\n        // Now we populate the top scores array.\r\n        if(TopScoresSecureCount < m_maxScores)\r\n        {\r\n            // If we didn't reach yet the maximum stored\r\n            // scores amount, we simply add the new entry.\r\n            Score memory newScore = Score(player, score);\r\n            TopScoresSecure.push(newScore);\r\n            TopScoresSecureCount++;\r\n        }\r\n        else\r\n        {\r\n            // If we reached the maximum stored scores amount,\r\n            // we have to verify if the new received score is\r\n            // higher than the lowest one in the top scores array.\r\n            int lowestScore = TopScoresSecure[0].score;\r\n            uint lowestScoreIndex = 0;\r\n            \r\n            // We search for the lowest stored score.\r\n            for(uint i = 1; i < TopScoresSecureCount; i++)\r\n            {\r\n                Score memory current = TopScoresSecure[i];\r\n                if(lowestScore > current.score)\r\n                {\r\n                    lowestScore = current.score;\r\n                    lowestScoreIndex = i;\r\n                }\r\n            }\r\n            \r\n            // Now we can check our new pushed score against\r\n            // the lowest one.\r\n            if(lowestScore < score)\r\n            {\r\n                Score memory newScoreToReplace = Score(player, score);\r\n                TopScoresSecure[lowestScoreIndex] = newScoreToReplace;\r\n            }\r\n        }\r\n    }\r\n    // SECURE ]\r\n\r\n    // PAYOUT LOGIC [\r\n\r\n    // CONFIGURE PAYOUTS [\r\n\r\n    address public hercContract;\r\n    address public payoutBoss;\r\n    uint[m_maxScores] public winnerReward;\r\n\r\n    function SetHERCTokenAddress(address hercContract_)\r\n        public\r\n        onlyOwner\r\n    {\r\n        hercContract = hercContract_;\r\n    }\r\n\r\n    function SetPayoutAddress(address boss)\r\n        public\r\n        onlyOwner\r\n    {\r\n        payoutBoss = boss;\r\n    }\r\n\r\n    function SetWinnerReward(uint rank, uint reward)\r\n        public\r\n        onlyOwner\r\n    {\r\n        winnerReward[rank] = reward;\r\n    }\r\n\r\n    // CONFIGURE PAYOUTS ]\r\n    // SEASON DATE [\r\n\r\n    uint public startDate;\r\n    uint public releaseDate;\r\n    uint public seasonInterval=9;\r\n    uint public lastWipeDate=9;\r\n\r\n    function SetNextSeasonReleaseDate(uint startDate_, uint releaseDate_)\r\n        public\r\n        onlyOwner\r\n    {\r\n        startDate = startDate_;\r\n        releaseDate = releaseDate_;\r\n    }\r\n\r\n    function SetSeasonInterval(uint interval)\r\n        public\r\n        onlyOwner\r\n    {\r\n        seasonInterval = interval;\r\n//        lastWipeDate = interval;\r\n    }\r\n\r\n    function IsSeasonOver()\r\n        public\r\n        view\r\n        returns(bool)\r\n    {\r\n        return (now >= releaseDate);\r\n    }\r\n\r\n    // SEASON DATE ]\r\n    // SEASON PAYOUT [\r\n\r\n    function PayoutToWinners()\r\n        public\r\n        onlyOwner\r\n    {\r\n        require (IsSeasonOver(), \"Season in progress\");\r\n\r\n        // update season\r\n        SetNextSeasonReleaseDate(releaseDate, releaseDate + seasonInterval);\r\n\r\n        // move scores to memory for sort and progress\r\n        uint count = GetTopScoresSecureCount();\r\n\r\n        Score[] memory scores = new Score[](count);\r\n\r\n        uint i;\r\n        for (i = 0; i < count; i++) {\r\n            Score memory score = TopScoresSecure[i];\r\n            //scores.push(score);\r\n            scores[i] = score;\r\n        }\r\n        \r\n        sortScores(scores);\r\n\r\n        // clean up scores for prevet double spent\r\n        //WipeScores();\r\n\r\n        for (i = 0; i < count; i++) {\r\n            payoutScore(scores[i].player, i);\r\n        }\r\n    }\r\n\r\n    event WinnerPayout(address player, uint rank, uint reward);\r\n\r\n    function payoutScore(address player, uint rank)\r\n        internal\r\n        onlyOwner\r\n    {\r\n        uint reward = winnerReward[rank];\r\n\r\n        HERCToken(hercContract).approve(player, reward);\r\n//        HERCToken(hercContract).approve(payoutBoss, reward);\r\n\r\n//        HERCToken(hercContract).transferFrom(payoutBoss, player, reward);\r\n\r\n        emit WinnerPayout(player, rank, reward);\r\n    }\r\n\r\n    function WipeScores()\r\n        public\r\n        onlyOwner\r\n    {\r\n        lastWipeDate = now;\r\n//        TopScores.length = 0;\r\n        TopScoresSecureCount = 0;\r\n    }\r\n\r\n    // SEASON PAYOUT ]\r\n    // UTILS [\r\n\r\n    function sortScores(Score[] memory scores)\r\n        internal\r\n    {\r\n        uint l = scores.length;\r\n        for(uint i = 0; i < l; i++) {\r\n            for(uint j = i+1; j < l ;j++) {\r\n                if(scores[i].score > scores[j].score) {\r\n                    Score memory temp = scores[i];\r\n                    scores[i] = scores[j];\r\n                    scores[j] = temp;\r\n                }\r\n            }\r\n        }\r\n    }\r\n\r\n    // UTILS ]\r\n    // PAYOUT LOGIC ]\r\n}\r\n",
  "sourcePath": "/home/vv/src/herc2/blockchain/contracts-dev/assetVerification/contracts/PlayerScore.sol",
  "compiler": {
    "name": "solc",
    "version": "0.4.24+commit.e67f0147.Emscripten.clang"
  },
  "schemaVersion": "2.0.1",
  "updatedAt": "2019-02-27T23:56:25.066Z"
}